{
  "_format": "hh-sol-artifact-1",
  "contractName": "MusicNFT",
  "sourceName": "contracts/MusicNFT.sol",
  "abi": [
    {
      "inputs": [],
      "stateMutability": "nonpayable",
      "type": "constructor"
    },
    {
      "inputs": [
        {
          "internalType": "uint256",
          "name": "numerator",
          "type": "uint256"
        },
        {
          "internalType": "uint256",
          "name": "denominator",
          "type": "uint256"
        }
      ],
      "name": "ERC2981InvalidDefaultRoyalty",
      "type": "error"
    },
    {
      "inputs": [
        {
          "internalType": "address",
          "name": "receiver",
          "type": "address"
        }
      ],
      "name": "ERC2981InvalidDefaultRoyaltyReceiver",
      "type": "error"
    },
    {
      "inputs": [
        {
          "internalType": "uint256",
          "name": "tokenId",
          "type": "uint256"
        },
        {
          "internalType": "uint256",
          "name": "numerator",
          "type": "uint256"
        },
        {
          "internalType": "uint256",
          "name": "denominator",
          "type": "uint256"
        }
      ],
      "name": "ERC2981InvalidTokenRoyalty",
      "type": "error"
    },
    {
      "inputs": [
        {
          "internalType": "uint256",
          "name": "tokenId",
          "type": "uint256"
        },
        {
          "internalType": "address",
          "name": "receiver",
          "type": "address"
        }
      ],
      "name": "ERC2981InvalidTokenRoyaltyReceiver",
      "type": "error"
    },
    {
      "inputs": [
        {
          "internalType": "address",
          "name": "sender",
          "type": "address"
        },
        {
          "internalType": "uint256",
          "name": "tokenId",
          "type": "uint256"
        },
        {
          "internalType": "address",
          "name": "owner",
          "type": "address"
        }
      ],
      "name": "ERC721IncorrectOwner",
      "type": "error"
    },
    {
      "inputs": [
        {
          "internalType": "address",
          "name": "operator",
          "type": "address"
        },
        {
          "internalType": "uint256",
          "name": "tokenId",
          "type": "uint256"
        }
      ],
      "name": "ERC721InsufficientApproval",
      "type": "error"
    },
    {
      "inputs": [
        {
          "internalType": "address",
          "name": "approver",
          "type": "address"
        }
      ],
      "name": "ERC721InvalidApprover",
      "type": "error"
    },
    {
      "inputs": [
        {
          "internalType": "address",
          "name": "operator",
          "type": "address"
        }
      ],
      "name": "ERC721InvalidOperator",
      "type": "error"
    },
    {
      "inputs": [
        {
          "internalType": "address",
          "name": "owner",
          "type": "address"
        }
      ],
      "name": "ERC721InvalidOwner",
      "type": "error"
    },
    {
      "inputs": [
        {
          "internalType": "address",
          "name": "receiver",
          "type": "address"
        }
      ],
      "name": "ERC721InvalidReceiver",
      "type": "error"
    },
    {
      "inputs": [
        {
          "internalType": "address",
          "name": "sender",
          "type": "address"
        }
      ],
      "name": "ERC721InvalidSender",
      "type": "error"
    },
    {
      "inputs": [
        {
          "internalType": "uint256",
          "name": "tokenId",
          "type": "uint256"
        }
      ],
      "name": "ERC721NonexistentToken",
      "type": "error"
    },
    {
      "inputs": [],
      "name": "EmptyTokenURI",
      "type": "error"
    },
    {
      "inputs": [
        {
          "internalType": "uint256",
          "name": "percentage",
          "type": "uint256"
        },
        {
          "internalType": "uint256",
          "name": "maxAllowed",
          "type": "uint256"
        }
      ],
      "name": "MaxRoyaltyExceeded",
      "type": "error"
    },
    {
      "inputs": [
        {
          "internalType": "uint256",
          "name": "tokenId",
          "type": "uint256"
        }
      ],
      "name": "NonexistentToken",
      "type": "error"
    },
    {
      "inputs": [],
      "name": "NotAuthorized",
      "type": "error"
    },
    {
      "inputs": [
        {
          "internalType": "address",
          "name": "owner",
          "type": "address"
        }
      ],
      "name": "OwnableInvalidOwner",
      "type": "error"
    },
    {
      "inputs": [
        {
          "internalType": "address",
          "name": "account",
          "type": "address"
        }
      ],
      "name": "OwnableUnauthorizedAccount",
      "type": "error"
    },
    {
      "anonymous": false,
      "inputs": [
        {
          "indexed": true,
          "internalType": "address",
          "name": "owner",
          "type": "address"
        },
        {
          "indexed": true,
          "internalType": "address",
          "name": "approved",
          "type": "address"
        },
        {
          "indexed": true,
          "internalType": "uint256",
          "name": "tokenId",
          "type": "uint256"
        }
      ],
      "name": "Approval",
      "type": "event"
    },
    {
      "anonymous": false,
      "inputs": [
        {
          "indexed": true,
          "internalType": "address",
          "name": "owner",
          "type": "address"
        },
        {
          "indexed": true,
          "internalType": "address",
          "name": "operator",
          "type": "address"
        },
        {
          "indexed": false,
          "internalType": "bool",
          "name": "approved",
          "type": "bool"
        }
      ],
      "name": "ApprovalForAll",
      "type": "event"
    },
    {
      "anonymous": false,
      "inputs": [
        {
          "indexed": false,
          "internalType": "uint256",
          "name": "_fromTokenId",
          "type": "uint256"
        },
        {
          "indexed": false,
          "internalType": "uint256",
          "name": "_toTokenId",
          "type": "uint256"
        }
      ],
      "name": "BatchMetadataUpdate",
      "type": "event"
    },
    {
      "anonymous": false,
      "inputs": [
        {
          "indexed": false,
          "internalType": "uint256",
          "name": "_tokenId",
          "type": "uint256"
        }
      ],
      "name": "MetadataUpdate",
      "type": "event"
    },
    {
      "anonymous": false,
      "inputs": [
        {
          "indexed": true,
          "internalType": "uint256",
          "name": "tokenId",
          "type": "uint256"
        },
        {
          "indexed": false,
          "internalType": "string",
          "name": "newTokenURI",
          "type": "string"
        }
      ],
      "name": "MetadataUpdated",
      "type": "event"
    },
    {
      "anonymous": false,
      "inputs": [
        {
          "indexed": true,
          "internalType": "uint256",
          "name": "tokenId",
          "type": "uint256"
        },
        {
          "indexed": true,
          "internalType": "address",
          "name": "creator",
          "type": "address"
        },
        {
          "indexed": false,
          "internalType": "string",
          "name": "tokenURI",
          "type": "string"
        },
        {
          "indexed": false,
          "internalType": "uint256",
          "name": "salesRoyaltyPercentage",
          "type": "uint256"
        },
        {
          "indexed": false,
          "internalType": "uint256",
          "name": "streamingRoyaltyPercentage",
          "type": "uint256"
        }
      ],
      "name": "NFTMinted",
      "type": "event"
    },
    {
      "anonymous": false,
      "inputs": [
        {
          "indexed": true,
          "internalType": "address",
          "name": "previousOwner",
          "type": "address"
        },
        {
          "indexed": true,
          "internalType": "address",
          "name": "newOwner",
          "type": "address"
        }
      ],
      "name": "OwnershipTransferred",
      "type": "event"
    },
    {
      "anonymous": false,
      "inputs": [
        {
          "indexed": true,
          "internalType": "address",
          "name": "from",
          "type": "address"
        },
        {
          "indexed": true,
          "internalType": "address",
          "name": "to",
          "type": "address"
        },
        {
          "indexed": true,
          "internalType": "uint256",
          "name": "tokenId",
          "type": "uint256"
        }
      ],
      "name": "Transfer",
      "type": "event"
    },
    {
      "inputs": [],
      "name": "MAX_ROYALTY_PERCENTAGE",
      "outputs": [
        {
          "internalType": "uint256",
          "name": "",
          "type": "uint256"
        }
      ],
      "stateMutability": "view",
      "type": "function"
    },
    {
      "inputs": [
        {
          "internalType": "address",
          "name": "to",
          "type": "address"
        },
        {
          "internalType": "uint256",
          "name": "tokenId",
          "type": "uint256"
        }
      ],
      "name": "approve",
      "outputs": [],
      "stateMutability": "nonpayable",
      "type": "function"
    },
    {
      "inputs": [
        {
          "internalType": "address",
          "name": "owner",
          "type": "address"
        }
      ],
      "name": "balanceOf",
      "outputs": [
        {
          "internalType": "uint256",
          "name": "",
          "type": "uint256"
        }
      ],
      "stateMutability": "view",
      "type": "function"
    },
    {
      "inputs": [
        {
          "internalType": "uint256",
          "name": "tokenId",
          "type": "uint256"
        }
      ],
      "name": "getApproved",
      "outputs": [
        {
          "internalType": "address",
          "name": "",
          "type": "address"
        }
      ],
      "stateMutability": "view",
      "type": "function"
    },
    {
      "inputs": [
        {
          "internalType": "uint256",
          "name": "tokenId",
          "type": "uint256"
        }
      ],
      "name": "getCreator",
      "outputs": [
        {
          "internalType": "address",
          "name": "",
          "type": "address"
        }
      ],
      "stateMutability": "view",
      "type": "function"
    },
    {
      "inputs": [
        {
          "internalType": "uint256",
          "name": "tokenId",
          "type": "uint256"
        }
      ],
      "name": "getSalesRoyalty",
      "outputs": [
        {
          "internalType": "address",
          "name": "receiver",
          "type": "address"
        },
        {
          "internalType": "uint256",
          "name": "royaltyAmount",
          "type": "uint256"
        }
      ],
      "stateMutability": "view",
      "type": "function"
    },
    {
      "inputs": [
        {
          "internalType": "uint256",
          "name": "tokenId",
          "type": "uint256"
        }
      ],
      "name": "getStreamingRoyalty",
      "outputs": [
        {
          "internalType": "uint256",
          "name": "",
          "type": "uint256"
        }
      ],
      "stateMutability": "view",
      "type": "function"
    },
    {
      "inputs": [
        {
          "internalType": "uint256",
          "name": "tokenId",
          "type": "uint256"
        }
      ],
      "name": "getTokenDetails",
      "outputs": [
        {
          "internalType": "address",
          "name": "creator",
          "type": "address"
        },
        {
          "internalType": "address",
          "name": "currentOwner",
          "type": "address"
        },
        {
          "internalType": "uint256",
          "name": "streamingRoyaltyPercentage",
          "type": "uint256"
        },
        {
          "internalType": "address",
          "name": "salesRoyaltyReceiver",
          "type": "address"
        },
        {
          "internalType": "uint256",
          "name": "salesRoyaltyPercentage",
          "type": "uint256"
        }
      ],
      "stateMutability": "view",
      "type": "function"
    },
    {
      "inputs": [
        {
          "internalType": "address",
          "name": "creator",
          "type": "address"
        }
      ],
      "name": "getTokensCreatedBy",
      "outputs": [
        {
          "internalType": "uint256[]",
          "name": "",
          "type": "uint256[]"
        }
      ],
      "stateMutability": "view",
      "type": "function"
    },
    {
      "inputs": [
        {
          "internalType": "address",
          "name": "owner",
          "type": "address"
        }
      ],
      "name": "getTokensOfOwner",
      "outputs": [
        {
          "internalType": "uint256[]",
          "name": "",
          "type": "uint256[]"
        }
      ],
      "stateMutability": "view",
      "type": "function"
    },
    {
      "inputs": [],
      "name": "getTotalSupply",
      "outputs": [
        {
          "internalType": "uint256",
          "name": "",
          "type": "uint256"
        }
      ],
      "stateMutability": "view",
      "type": "function"
    },
    {
      "inputs": [
        {
          "internalType": "address",
          "name": "owner",
          "type": "address"
        },
        {
          "internalType": "address",
          "name": "operator",
          "type": "address"
        }
      ],
      "name": "isApprovedForAll",
      "outputs": [
        {
          "internalType": "bool",
          "name": "",
          "type": "bool"
        }
      ],
      "stateMutability": "view",
      "type": "function"
    },
    {
      "inputs": [
        {
          "internalType": "string",
          "name": "tokenURI",
          "type": "string"
        },
        {
          "internalType": "uint256",
          "name": "salesRoyaltyPercentage",
          "type": "uint256"
        },
        {
          "internalType": "uint256",
          "name": "streamingRoyaltyPercentage",
          "type": "uint256"
        }
      ],
      "name": "mintNFT",
      "outputs": [
        {
          "internalType": "uint256",
          "name": "",
          "type": "uint256"
        }
      ],
      "stateMutability": "nonpayable",
      "type": "function"
    },
    {
      "inputs": [],
      "name": "name",
      "outputs": [
        {
          "internalType": "string",
          "name": "",
          "type": "string"
        }
      ],
      "stateMutability": "view",
      "type": "function"
    },
    {
      "inputs": [],
      "name": "owner",
      "outputs": [
        {
          "internalType": "address",
          "name": "",
          "type": "address"
        }
      ],
      "stateMutability": "view",
      "type": "function"
    },
    {
      "inputs": [
        {
          "internalType": "uint256",
          "name": "tokenId",
          "type": "uint256"
        }
      ],
      "name": "ownerOf",
      "outputs": [
        {
          "internalType": "address",
          "name": "",
          "type": "address"
        }
      ],
      "stateMutability": "view",
      "type": "function"
    },
    {
      "inputs": [],
      "name": "renounceOwnership",
      "outputs": [],
      "stateMutability": "nonpayable",
      "type": "function"
    },
    {
      "inputs": [
        {
          "internalType": "uint256",
          "name": "tokenId",
          "type": "uint256"
        },
        {
          "internalType": "uint256",
          "name": "salePrice",
          "type": "uint256"
        }
      ],
      "name": "royaltyInfo",
      "outputs": [
        {
          "internalType": "address",
          "name": "receiver",
          "type": "address"
        },
        {
          "internalType": "uint256",
          "name": "amount",
          "type": "uint256"
        }
      ],
      "stateMutability": "view",
      "type": "function"
    },
    {
      "inputs": [
        {
          "internalType": "address",
          "name": "from",
          "type": "address"
        },
        {
          "internalType": "address",
          "name": "to",
          "type": "address"
        },
        {
          "internalType": "uint256",
          "name": "tokenId",
          "type": "uint256"
        }
      ],
      "name": "safeTransferFrom",
      "outputs": [],
      "stateMutability": "nonpayable",
      "type": "function"
    },
    {
      "inputs": [
        {
          "internalType": "address",
          "name": "from",
          "type": "address"
        },
        {
          "internalType": "address",
          "name": "to",
          "type": "address"
        },
        {
          "internalType": "uint256",
          "name": "tokenId",
          "type": "uint256"
        },
        {
          "internalType": "bytes",
          "name": "data",
          "type": "bytes"
        }
      ],
      "name": "safeTransferFrom",
      "outputs": [],
      "stateMutability": "nonpayable",
      "type": "function"
    },
    {
      "inputs": [
        {
          "internalType": "address",
          "name": "operator",
          "type": "address"
        },
        {
          "internalType": "bool",
          "name": "approved",
          "type": "bool"
        }
      ],
      "name": "setApprovalForAll",
      "outputs": [],
      "stateMutability": "nonpayable",
      "type": "function"
    },
    {
      "inputs": [
        {
          "internalType": "bytes4",
          "name": "interfaceId",
          "type": "bytes4"
        }
      ],
      "name": "supportsInterface",
      "outputs": [
        {
          "internalType": "bool",
          "name": "",
          "type": "bool"
        }
      ],
      "stateMutability": "view",
      "type": "function"
    },
    {
      "inputs": [],
      "name": "symbol",
      "outputs": [
        {
          "internalType": "string",
          "name": "",
          "type": "string"
        }
      ],
      "stateMutability": "view",
      "type": "function"
    },
    {
      "inputs": [
        {
          "internalType": "uint256",
          "name": "tokenId",
          "type": "uint256"
        }
      ],
      "name": "tokenExists",
      "outputs": [
        {
          "internalType": "bool",
          "name": "",
          "type": "bool"
        }
      ],
      "stateMutability": "view",
      "type": "function"
    },
    {
      "inputs": [
        {
          "internalType": "uint256",
          "name": "tokenId",
          "type": "uint256"
        }
      ],
      "name": "tokenURI",
      "outputs": [
        {
          "internalType": "string",
          "name": "",
          "type": "string"
        }
      ],
      "stateMutability": "view",
      "type": "function"
    },
    {
      "inputs": [
        {
          "internalType": "address",
          "name": "from",
          "type": "address"
        },
        {
          "internalType": "address",
          "name": "to",
          "type": "address"
        },
        {
          "internalType": "uint256",
          "name": "tokenId",
          "type": "uint256"
        }
      ],
      "name": "transferFrom",
      "outputs": [],
      "stateMutability": "nonpayable",
      "type": "function"
    },
    {
      "inputs": [
        {
          "internalType": "address",
          "name": "newOwner",
          "type": "address"
        }
      ],
      "name": "transferOwnership",
      "outputs": [],
      "stateMutability": "nonpayable",
      "type": "function"
    },
    {
      "inputs": [
        {
          "internalType": "uint256",
          "name": "tokenId",
          "type": "uint256"
        },
        {
          "internalType": "string",
          "name": "newTokenURI",
          "type": "string"
        }
      ],
      "name": "updateTokenURI",
      "outputs": [],
      "stateMutability": "nonpayable",
      "type": "function"
    }
  ],
  "bytecode": "0x608060405234801561001057600080fd5b50336040518060400160405280600881526020017f4d757369634e46540000000000000000000000000000000000000000000000008152506040518060400160405280600581526020017f4d55534943000000000000000000000000000000000000000000000000000000815250816000908161008d919061043d565b50806001908161009d919061043d565b505050600073ffffffffffffffffffffffffffffffffffffffff168173ffffffffffffffffffffffffffffffffffffffff16036101125760006040517f1e4fbdf70000000000000000000000000000000000000000000000000000000081526004016101099190610550565b60405180910390fd5b6101218161012760201b60201c565b5061056b565b6000600960009054906101000a900473ffffffffffffffffffffffffffffffffffffffff16905081600960006101000a81548173ffffffffffffffffffffffffffffffffffffffff021916908373ffffffffffffffffffffffffffffffffffffffff1602179055508173ffffffffffffffffffffffffffffffffffffffff168173ffffffffffffffffffffffffffffffffffffffff167f8be0079c531659141344cd1fd0a4f28419497f9722a3daafe3b4186f6b6457e060405160405180910390a35050565b600081519050919050565b7f4e487b7100000000000000000000000000000000000000000000000000000000600052604160045260246000fd5b7f4e487b7100000000000000000000000000000000000000000000000000000000600052602260045260246000fd5b6000600282049050600182168061026e57607f821691505b60208210810361028157610280610227565b5b50919050565b60008190508160005260206000209050919050565b60006020601f8301049050919050565b600082821b905092915050565b6000600883026102e97fffffffffffffffffffffffffffffffffffffffffffffffffffffffffffffffff826102ac565b6102f386836102ac565b95508019841693508086168417925050509392505050565b6000819050919050565b6000819050919050565b600061033a6103356103308461030b565b610315565b61030b565b9050919050565b6000819050919050565b6103548361031f565b61036861036082610341565b8484546102b9565b825550505050565b600090565b61037d610370565b61038881848461034b565b505050565b5b818110156103ac576103a1600082610375565b60018101905061038e565b5050565b601f8211156103f1576103c281610287565b6103cb8461029c565b810160208510156103da578190505b6103ee6103e68561029c565b83018261038d565b50505b505050565b600082821c905092915050565b6000610414600019846008026103f6565b1980831691505092915050565b600061042d8383610403565b9150826002028217905092915050565b610446826101ed565b67ffffffffffffffff81111561045f5761045e6101f8565b5b6104698254610256565b6104748282856103b0565b600060209050601f8311600181146104a75760008415610495578287015190505b61049f8582610421565b865550610507565b601f1984166104b586610287565b60005b828110156104dd578489015182556001820191506020850194506020810190506104b8565b868310156104fa57848901516104f6601f891682610403565b8355505b6001600288020188555050505b505050505050565b600073ffffffffffffffffffffffffffffffffffffffff82169050919050565b600061053a8261050f565b9050919050565b61054a8161052f565b82525050565b60006020820190506105656000830184610541565b92915050565b613b7e8061057a6000396000f3fe608060405234801561001057600080fd5b50600436106101c35760003560e01c806373b8bded116100f9578063c1e0372811610097578063d48e638a11610071578063d48e638a14610556578063ddc0f31214610586578063e985e9c5146105b6578063f2fde38b146105e6576101c3565b8063c1e03728146104d4578063c4e41b2214610508578063c87b56dd14610526576101c3565b8063977922d2116100d3578063977922d21461044e578063a22cb4651461047e578063a9225d1b1461049a578063b88d4fde146104b8576101c3565b806373b8bded146103e25780638da5cb5b1461041257806395d89b4114610430576101c3565b80632a55205a116101665780635de6dc55116101405780635de6dc55146103485780636352211e1461037857806370a08231146103a8578063715018a6146103d8576101c3565b80632a55205a146102ca57806342842e0e146102fb5780634d4d3e9214610317576101c3565b8063081812fc116101a2578063081812fc14610246578063095ea7b31461027657806318e97fd11461029257806323b872dd146102ae576101c3565b8062923f9e146101c857806301ffc9a7146101f857806306fdde0314610228575b600080fd5b6101e260048036038101906101dd9190612bbd565b610602565b6040516101ef9190612c05565b60405180910390f35b610212600480360381019061020d9190612c78565b610614565b60405161021f9190612c05565b60405180910390f35b610230610626565b60405161023d9190612d35565b60405180910390f35b610260600480360381019061025b9190612bbd565b6106b8565b60405161026d9190612d98565b60405180910390f35b610290600480360381019061028b9190612ddf565b6106d4565b005b6102ac60048036038101906102a79190612f54565b6106ea565b005b6102c860048036038101906102c39190612fb0565b61088f565b005b6102e460048036038101906102df9190613003565b610991565b6040516102f2929190613052565b60405180910390f35b61031560048036038101906103109190612fb0565b610ac1565b005b610331600480360381019061032c9190612bbd565b610ae1565b60405161033f929190613052565b60405180910390f35b610362600480360381019061035d919061307b565b610b43565b60405161036f9190613166565b60405180910390f35b610392600480360381019061038d9190612bbd565b610bda565b60405161039f9190612d98565b60405180910390f35b6103c260048036038101906103bd919061307b565b610bec565b6040516103cf9190613188565b60405180910390f35b6103e0610ca6565b005b6103fc60048036038101906103f79190612bbd565b610cba565b6040516104099190613188565b60405180910390f35b61041a610d21565b6040516104279190612d98565b60405180910390f35b610438610d4b565b6040516104459190612d35565b60405180910390f35b610468600480360381019061046391906131a3565b610ddd565b6040516104759190613188565b60405180910390f35b6104986004803603810190610493919061323e565b610fb5565b005b6104a2610fcb565b6040516104af9190613188565b60405180910390f35b6104d260048036038101906104cd919061331f565b610fd1565b005b6104ee60048036038101906104e99190612bbd565b610ff6565b6040516104ff9594939291906133a2565b60405180910390f35b6105106110d7565b60405161051d9190613188565b60405180910390f35b610540600480360381019061053b9190612bbd565b6110e1565b60405161054d9190612d35565b60405180910390f35b610570600480360381019061056b9190612bbd565b6111f4565b60405161057d9190612d98565b60405180910390f35b6105a0600480360381019061059b919061307b565b61127b565b6040516105ad9190613166565b60405180910390f35b6105d060048036038101906105cb91906133f5565b611448565b6040516105dd9190612c05565b60405180910390f35b61060060048036038101906105fb919061307b565b6114dc565b005b600061060d82611562565b9050919050565b600061061f826115a3565b9050919050565b60606000805461063590613464565b80601f016020809104026020016040519081016040528092919081815260200182805461066190613464565b80156106ae5780601f10610683576101008083540402835291602001916106ae565b820191906000526020600020905b81548152906001019060200180831161069157829003601f168201915b5050505050905090565b60006106c38261161d565b506106cd826116a5565b9050919050565b6106e682826106e16116e2565b6116ea565b5050565b6106f382611562565b61073457816040517f2f4163e700000000000000000000000000000000000000000000000000000000815260040161072b9190613188565b60405180910390fd5b3373ffffffffffffffffffffffffffffffffffffffff16600c600084815260200190815260200160002060009054906101000a900473ffffffffffffffffffffffffffffffffffffffff1673ffffffffffffffffffffffffffffffffffffffff16141580156107d757503373ffffffffffffffffffffffffffffffffffffffff166107be83610bda565b73ffffffffffffffffffffffffffffffffffffffff1614155b1561080e576040517fea8e4eb500000000000000000000000000000000000000000000000000000000815260040160405180910390fd5b6000815103610849576040517f17314b6100000000000000000000000000000000000000000000000000000000815260040160405180910390fd5b61085382826116fc565b817f459157ba24c7ab9878b165ef465fa6ae2ab42bcd8445f576be378768b0c47309826040516108839190612d35565b60405180910390a25050565b600073ffffffffffffffffffffffffffffffffffffffff168273ffffffffffffffffffffffffffffffffffffffff16036109015760006040517f64a0ae920000000000000000000000000000000000000000000000000000000081526004016108f89190612d98565b60405180910390fd5b600061091583836109106116e2565b611758565b90508373ffffffffffffffffffffffffffffffffffffffff168173ffffffffffffffffffffffffffffffffffffffff161461098b578382826040517f64283d7b00000000000000000000000000000000000000000000000000000000815260040161098293929190613495565b60405180910390fd5b50505050565b600080600060086000868152602001908152602001600020905060008160000160009054906101000a900473ffffffffffffffffffffffffffffffffffffffff16905060008260000160149054906101000a90046bffffffffffffffffffffffff169050600073ffffffffffffffffffffffffffffffffffffffff168273ffffffffffffffffffffffffffffffffffffffff1603610a7257600760000160009054906101000a900473ffffffffffffffffffffffffffffffffffffffff169150600760000160149054906101000a90046bffffffffffffffffffffffff1690505b6000610a7c611a5c565b6bffffffffffffffffffffffff16826bffffffffffffffffffffffff1688610aa491906134fb565b610aae919061356c565b9050828195509550505050509250929050565b610adc83838360405180602001604052806000815250610fd1565b505050565b600080610aed83611562565b610b2e57826040517f2f4163e7000000000000000000000000000000000000000000000000000000008152600401610b259190613188565b60405180910390fd5b610b3a83612710610991565b91509150915091565b6060600d60008373ffffffffffffffffffffffffffffffffffffffff1673ffffffffffffffffffffffffffffffffffffffff168152602001908152602001600020805480602002602001604051908101604052809291908181526020018280548015610bce57602002820191906000526020600020905b815481526020019060010190808311610bba575b50505050509050919050565b6000610be58261161d565b9050919050565b60008073ffffffffffffffffffffffffffffffffffffffff168273ffffffffffffffffffffffffffffffffffffffff1603610c5f5760006040517f89c62b64000000000000000000000000000000000000000000000000000000008152600401610c569190612d98565b60405180910390fd5b600360008373ffffffffffffffffffffffffffffffffffffffff1673ffffffffffffffffffffffffffffffffffffffff168152602001908152602001600020549050919050565b610cae611a66565b610cb86000611aed565b565b6000610cc582611562565b610d0657816040517f2f4163e7000000000000000000000000000000000000000000000000000000008152600401610cfd9190613188565b60405180910390fd5b600b6000838152602001908152602001600020549050919050565b6000600960009054906101000a900473ffffffffffffffffffffffffffffffffffffffff16905090565b606060018054610d5a90613464565b80601f0160208091040260200160405190810160405280929190818152602001828054610d8690613464565b8015610dd35780601f10610da857610100808354040283529160200191610dd3565b820191906000526020600020905b815481529060010190602001808311610db657829003601f168201915b5050505050905090565b600080845103610e19576040517f17314b6100000000000000000000000000000000000000000000000000000000815260040160405180910390fd5b611388831115610e6457826113886040517fe8f6a7a0000000000000000000000000000000000000000000000000000000008152600401610e5b92919061359d565b60405180910390fd5b611388821115610eaf57816113886040517fe8f6a7a0000000000000000000000000000000000000000000000000000000008152600401610ea692919061359d565b60405180910390fd5b600a6000815480929190610ec2906135c6565b91905055506000600a549050610ed83382611bb3565b610ee281866116fc565b82600b60008381526020019081526020016000208190555033600c600083815260200190815260200160002060006101000a81548173ffffffffffffffffffffffffffffffffffffffff021916908373ffffffffffffffffffffffffffffffffffffffff160217905550610f57813386611cac565b3373ffffffffffffffffffffffffffffffffffffffff16817f230f370a05709de0fb66d6c80697c271c211be2e7c28cf79d1fe28d1b508a7cf878787604051610fa29392919061360e565b60405180910390a3809150509392505050565b610fc7610fc06116e2565b8383611e64565b5050565b61138881565b610fdc84848461088f565b610ff0610fe76116e2565b85858585611fd3565b50505050565b600080600080600061100786611562565b61104857856040517f2f4163e700000000000000000000000000000000000000000000000000000000815260040161103f9190613188565b60405180910390fd5b600c600087815260200190815260200160002060009054906101000a900473ffffffffffffffffffffffffffffffffffffffff16945061108786610bda565b9350600b60008781526020019081526020016000205492506110ab86612710610991565b809250819350505061271080826110c291906134fb565b6110cc919061356c565b905091939590929450565b6000600a54905090565b60606110ec8261161d565b50600060066000848152602001908152602001600020805461110d90613464565b80601f016020809104026020016040519081016040528092919081815260200182805461113990613464565b80156111865780601f1061115b57610100808354040283529160200191611186565b820191906000526020600020905b81548152906001019060200180831161116957829003601f168201915b505050505090506000611197612184565b905060008151036111ac5781925050506111ef565b6000825111156111e15780826040516020016111c9929190613688565b604051602081830303815290604052925050506111ef565b6111ea8461219b565b925050505b919050565b60006111ff82611562565b61124057816040517f2f4163e70000000000000000000000000000000000000000000000000000000081526004016112379190613188565b60405180910390fd5b600c600083815260200190815260200160002060009054906101000a900473ffffffffffffffffffffffffffffffffffffffff169050919050565b606060006112876110d7565b67ffffffffffffffff8111156112a05761129f612e29565b5b6040519080825280602002602001820160405280156112ce5781602001602082028036833780820191505090505b509050600080600190505b600a54811161139c576112eb81611562565b801561135557508473ffffffffffffffffffffffffffffffffffffffff16600c600083815260200190815260200160002060009054906101000a900473ffffffffffffffffffffffffffffffffffffffff1673ffffffffffffffffffffffffffffffffffffffff16145b15611389578083838151811061136e5761136d6136ac565b5b6020026020010181815250508180611385906135c6565b9250505b8080611394906135c6565b9150506112d9565b5060008167ffffffffffffffff8111156113b9576113b8612e29565b5b6040519080825280602002602001820160405280156113e75781602001602082028036833780820191505090505b50905060005b8281101561143c57838181518110611408576114076136ac565b5b6020026020010151828281518110611423576114226136ac565b5b60200260200101818152505080806001019150506113ed565b50809350505050919050565b6000600560008473ffffffffffffffffffffffffffffffffffffffff1673ffffffffffffffffffffffffffffffffffffffff16815260200190815260200160002060008373ffffffffffffffffffffffffffffffffffffffff1673ffffffffffffffffffffffffffffffffffffffff16815260200190815260200160002060009054906101000a900460ff16905092915050565b6114e4611a66565b600073ffffffffffffffffffffffffffffffffffffffff168173ffffffffffffffffffffffffffffffffffffffff16036115565760006040517f1e4fbdf700000000000000000000000000000000000000000000000000000000815260040161154d9190612d98565b60405180910390fd5b61155f81611aed565b50565b60008073ffffffffffffffffffffffffffffffffffffffff1661158483612204565b73ffffffffffffffffffffffffffffffffffffffff1614159050919050565b60007f2a55205a000000000000000000000000000000000000000000000000000000007bffffffffffffffffffffffffffffffffffffffffffffffffffffffff1916827bffffffffffffffffffffffffffffffffffffffffffffffffffffffff19161480611616575061161582612241565b5b9050919050565b60008061162983612204565b9050600073ffffffffffffffffffffffffffffffffffffffff168173ffffffffffffffffffffffffffffffffffffffff160361169c57826040517f7e2732890000000000000000000000000000000000000000000000000000000081526004016116939190613188565b60405180910390fd5b80915050919050565b60006004600083815260200190815260200160002060009054906101000a900473ffffffffffffffffffffffffffffffffffffffff169050919050565b600033905090565b6116f783838360016122a2565b505050565b8060066000848152602001908152602001600020908161171c9190613887565b507ff8e1a15aba9398e019f0b49df1a4fde98ee17ae345cb5f6b5e2c27f5033e8ce78260405161174c9190613188565b60405180910390a15050565b600080611766858585612467565b9050600073ffffffffffffffffffffffffffffffffffffffff168173ffffffffffffffffffffffffffffffffffffffff1614611950576000600e600086815260200190815260200160002054905060006001600d60008573ffffffffffffffffffffffffffffffffffffffff1673ffffffffffffffffffffffffffffffffffffffff168152602001908152602001600020805490506118059190613959565b90508082146118e8576000600d60008573ffffffffffffffffffffffffffffffffffffffff1673ffffffffffffffffffffffffffffffffffffffff1681526020019081526020016000208281548110611861576118606136ac565b5b9060005260206000200154905080600d60008673ffffffffffffffffffffffffffffffffffffffff1673ffffffffffffffffffffffffffffffffffffffff16815260200190815260200160002084815481106118c0576118bf6136ac565b5b906000526020600020018190555082600e600083815260200190815260200160002081905550505b600d60008473ffffffffffffffffffffffffffffffffffffffff1673ffffffffffffffffffffffffffffffffffffffff1681526020019081526020016000208054806119375761193661398d565b5b6001900381819060005260206000200160009055905550505b600073ffffffffffffffffffffffffffffffffffffffff168573ffffffffffffffffffffffffffffffffffffffff1614611a5157600d60008673ffffffffffffffffffffffffffffffffffffffff1673ffffffffffffffffffffffffffffffffffffffff1681526020019081526020016000208490806001815401808255809150506001900390600052602060002001600090919091909150556001600d60008773ffffffffffffffffffffffffffffffffffffffff1673ffffffffffffffffffffffffffffffffffffffff16815260200190815260200160002080549050611a399190613959565b600e6000868152602001908152602001600020819055505b809150509392505050565b6000612710905090565b611a6e6116e2565b73ffffffffffffffffffffffffffffffffffffffff16611a8c610d21565b73ffffffffffffffffffffffffffffffffffffffff1614611aeb57611aaf6116e2565b6040517f118cdaa7000000000000000000000000000000000000000000000000000000008152600401611ae29190612d98565b60405180910390fd5b565b6000600960009054906101000a900473ffffffffffffffffffffffffffffffffffffffff16905081600960006101000a81548173ffffffffffffffffffffffffffffffffffffffff021916908373ffffffffffffffffffffffffffffffffffffffff1602179055508173ffffffffffffffffffffffffffffffffffffffff168173ffffffffffffffffffffffffffffffffffffffff167f8be0079c531659141344cd1fd0a4f28419497f9722a3daafe3b4186f6b6457e060405160405180910390a35050565b600073ffffffffffffffffffffffffffffffffffffffff168273ffffffffffffffffffffffffffffffffffffffff1603611c255760006040517f64a0ae92000000000000000000000000000000000000000000000000000000008152600401611c1c9190612d98565b60405180910390fd5b6000611c3383836000611758565b9050600073ffffffffffffffffffffffffffffffffffffffff168173ffffffffffffffffffffffffffffffffffffffff1614611ca75760006040517f73c6ac6e000000000000000000000000000000000000000000000000000000008152600401611c9e9190612d98565b60405180910390fd5b505050565b6000611cb6611a5c565b6bffffffffffffffffffffffff16905080826bffffffffffffffffffffffff161115611d1d578382826040517fdfd1fc1b000000000000000000000000000000000000000000000000000000008152600401611d1493929190613a05565b60405180910390fd5b600073ffffffffffffffffffffffffffffffffffffffff168373ffffffffffffffffffffffffffffffffffffffff1603611d91578360006040517f969f0852000000000000000000000000000000000000000000000000000000008152600401611d88929190613a3c565b60405180910390fd5b60405180604001604052808473ffffffffffffffffffffffffffffffffffffffff168152602001836bffffffffffffffffffffffff168152506008600086815260200190815260200160002060008201518160000160006101000a81548173ffffffffffffffffffffffffffffffffffffffff021916908373ffffffffffffffffffffffffffffffffffffffff16021790555060208201518160000160146101000a8154816bffffffffffffffffffffffff02191690836bffffffffffffffffffffffff16021790555090505050505050565b600073ffffffffffffffffffffffffffffffffffffffff168273ffffffffffffffffffffffffffffffffffffffff1603611ed557816040517f5b08ba18000000000000000000000000000000000000000000000000000000008152600401611ecc9190612d98565b60405180910390fd5b80600560008573ffffffffffffffffffffffffffffffffffffffff1673ffffffffffffffffffffffffffffffffffffffff16815260200190815260200160002060008473ffffffffffffffffffffffffffffffffffffffff1673ffffffffffffffffffffffffffffffffffffffff16815260200190815260200160002060006101000a81548160ff0219169083151502179055508173ffffffffffffffffffffffffffffffffffffffff168373ffffffffffffffffffffffffffffffffffffffff167f17307eab39ab6107e8899845ad3d59bd9653f200f220920489ca2b5937696c3183604051611fc69190612c05565b60405180910390a3505050565b60008373ffffffffffffffffffffffffffffffffffffffff163b111561217d578273ffffffffffffffffffffffffffffffffffffffff1663150b7a02868685856040518563ffffffff1660e01b81526004016120329493929190613aba565b6020604051808303816000875af192505050801561206e57506040513d601f19601f8201168201806040525081019061206b9190613b1b565b60015b6120f2573d806000811461209e576040519150601f19603f3d011682016040523d82523d6000602084013e6120a3565b606091505b5060008151036120ea57836040517f64a0ae920000000000000000000000000000000000000000000000000000000081526004016120e19190612d98565b60405180910390fd5b805181602001fd5b63150b7a0260e01b7bffffffffffffffffffffffffffffffffffffffffffffffffffffffff1916817bffffffffffffffffffffffffffffffffffffffffffffffffffffffff19161461217b57836040517f64a0ae920000000000000000000000000000000000000000000000000000000081526004016121729190612d98565b60405180910390fd5b505b5050505050565b606060405180602001604052806000815250905090565b60606121a68261161d565b5060006121b1612184565b905060008151116121d157604051806020016040528060008152506121fc565b806121db84612681565b6040516020016121ec929190613688565b6040516020818303038152906040525b915050919050565b60006002600083815260200190815260200160002060009054906101000a900473ffffffffffffffffffffffffffffffffffffffff169050919050565b6000634906490660e01b7bffffffffffffffffffffffffffffffffffffffffffffffffffffffff1916827bffffffffffffffffffffffffffffffffffffffffffffffffffffffff1916148061229b575061229a8261274f565b5b9050919050565b80806122db5750600073ffffffffffffffffffffffffffffffffffffffff168273ffffffffffffffffffffffffffffffffffffffff1614155b1561240f5760006122eb8461161d565b9050600073ffffffffffffffffffffffffffffffffffffffff168373ffffffffffffffffffffffffffffffffffffffff161415801561235657508273ffffffffffffffffffffffffffffffffffffffff168173ffffffffffffffffffffffffffffffffffffffff1614155b801561236957506123678184611448565b155b156123ab57826040517fa9fbf51f0000000000000000000000000000000000000000000000000000000081526004016123a29190612d98565b60405180910390fd5b811561240d57838573ffffffffffffffffffffffffffffffffffffffff168273ffffffffffffffffffffffffffffffffffffffff167f8c5be1e5ebec7d5bd14f71427d1e84f3dd0314c0f7b2291e5b200ac8c7c3b92560405160405180910390a45b505b836004600085815260200190815260200160002060006101000a81548173ffffffffffffffffffffffffffffffffffffffff021916908373ffffffffffffffffffffffffffffffffffffffff16021790555050505050565b60008061247384612204565b9050600073ffffffffffffffffffffffffffffffffffffffff168373ffffffffffffffffffffffffffffffffffffffff16146124b5576124b4818486612831565b5b600073ffffffffffffffffffffffffffffffffffffffff168173ffffffffffffffffffffffffffffffffffffffff1614612546576124f76000856000806122a2565b6001600360008373ffffffffffffffffffffffffffffffffffffffff1673ffffffffffffffffffffffffffffffffffffffff168152602001908152602001600020600082825403925050819055505b600073ffffffffffffffffffffffffffffffffffffffff168573ffffffffffffffffffffffffffffffffffffffff16146125c9576001600360008773ffffffffffffffffffffffffffffffffffffffff1673ffffffffffffffffffffffffffffffffffffffff168152602001908152602001600020600082825401925050819055505b846002600086815260200190815260200160002060006101000a81548173ffffffffffffffffffffffffffffffffffffffff021916908373ffffffffffffffffffffffffffffffffffffffff160217905550838573ffffffffffffffffffffffffffffffffffffffff168273ffffffffffffffffffffffffffffffffffffffff167fddf252ad1be2c89b69c2b068fc378daa952ba7f163c4a11628f55a4df523b3ef60405160405180910390a4809150509392505050565b606060006001612690846128f5565b01905060008167ffffffffffffffff8111156126af576126ae612e29565b5b6040519080825280601f01601f1916602001820160405280156126e15781602001600182028036833780820191505090505b509050600082602001820190505b600115612744578080600190039150507f3031323334353637383961626364656600000000000000000000000000000000600a86061a8153600a85816127385761273761353d565b5b049450600085036126ef575b819350505050919050565b60007f80ac58cd000000000000000000000000000000000000000000000000000000007bffffffffffffffffffffffffffffffffffffffffffffffffffffffff1916827bffffffffffffffffffffffffffffffffffffffffffffffffffffffff1916148061281a57507f5b5e139f000000000000000000000000000000000000000000000000000000007bffffffffffffffffffffffffffffffffffffffffffffffffffffffff1916827bffffffffffffffffffffffffffffffffffffffffffffffffffffffff1916145b8061282a575061282982612a48565b5b9050919050565b61283c838383612ab2565b6128f057600073ffffffffffffffffffffffffffffffffffffffff168373ffffffffffffffffffffffffffffffffffffffff16036128b157806040517f7e2732890000000000000000000000000000000000000000000000000000000081526004016128a89190613188565b60405180910390fd5b81816040517f177e802f0000000000000000000000000000000000000000000000000000000081526004016128e7929190613052565b60405180910390fd5b505050565b600080600090507a184f03e93ff9f4daa797ed6e38ed64bf6a1f0100000000000000008310612953577a184f03e93ff9f4daa797ed6e38ed64bf6a1f01000000000000000083816129495761294861353d565b5b0492506040810190505b6d04ee2d6d415b85acef81000000008310612990576d04ee2d6d415b85acef810000000083816129865761298561353d565b5b0492506020810190505b662386f26fc1000083106129bf57662386f26fc1000083816129b5576129b461353d565b5b0492506010810190505b6305f5e10083106129e8576305f5e10083816129de576129dd61353d565b5b0492506008810190505b6127108310612a0d576127108381612a0357612a0261353d565b5b0492506004810190505b60648310612a305760648381612a2657612a2561353d565b5b0492506002810190505b600a8310612a3f576001810190505b80915050919050565b60007f01ffc9a7000000000000000000000000000000000000000000000000000000007bffffffffffffffffffffffffffffffffffffffffffffffffffffffff1916827bffffffffffffffffffffffffffffffffffffffffffffffffffffffff1916149050919050565b60008073ffffffffffffffffffffffffffffffffffffffff168373ffffffffffffffffffffffffffffffffffffffff1614158015612b6a57508273ffffffffffffffffffffffffffffffffffffffff168473ffffffffffffffffffffffffffffffffffffffff161480612b2b5750612b2a8484611448565b5b80612b6957508273ffffffffffffffffffffffffffffffffffffffff16612b51836116a5565b73ffffffffffffffffffffffffffffffffffffffff16145b5b90509392505050565b6000604051905090565b600080fd5b600080fd5b6000819050919050565b612b9a81612b87565b8114612ba557600080fd5b50565b600081359050612bb781612b91565b92915050565b600060208284031215612bd357612bd2612b7d565b5b6000612be184828501612ba8565b91505092915050565b60008115159050919050565b612bff81612bea565b82525050565b6000602082019050612c1a6000830184612bf6565b92915050565b60007fffffffff0000000000000000000000000000000000000000000000000000000082169050919050565b612c5581612c20565b8114612c6057600080fd5b50565b600081359050612c7281612c4c565b92915050565b600060208284031215612c8e57612c8d612b7d565b5b6000612c9c84828501612c63565b91505092915050565b600081519050919050565b600082825260208201905092915050565b60005b83811015612cdf578082015181840152602081019050612cc4565b60008484015250505050565b6000601f19601f8301169050919050565b6000612d0782612ca5565b612d118185612cb0565b9350612d21818560208601612cc1565b612d2a81612ceb565b840191505092915050565b60006020820190508181036000830152612d4f8184612cfc565b905092915050565b600073ffffffffffffffffffffffffffffffffffffffff82169050919050565b6000612d8282612d57565b9050919050565b612d9281612d77565b82525050565b6000602082019050612dad6000830184612d89565b92915050565b612dbc81612d77565b8114612dc757600080fd5b50565b600081359050612dd981612db3565b92915050565b60008060408385031215612df657612df5612b7d565b5b6000612e0485828601612dca565b9250506020612e1585828601612ba8565b9150509250929050565b600080fd5b600080fd5b7f4e487b7100000000000000000000000000000000000000000000000000000000600052604160045260246000fd5b612e6182612ceb565b810181811067ffffffffffffffff82111715612e8057612e7f612e29565b5b80604052505050565b6000612e93612b73565b9050612e9f8282612e58565b919050565b600067ffffffffffffffff821115612ebf57612ebe612e29565b5b612ec882612ceb565b9050602081019050919050565b82818337600083830152505050565b6000612ef7612ef284612ea4565b612e89565b905082815260208101848484011115612f1357612f12612e24565b5b612f1e848285612ed5565b509392505050565b600082601f830112612f3b57612f3a612e1f565b5b8135612f4b848260208601612ee4565b91505092915050565b60008060408385031215612f6b57612f6a612b7d565b5b6000612f7985828601612ba8565b925050602083013567ffffffffffffffff811115612f9a57612f99612b82565b5b612fa685828601612f26565b9150509250929050565b600080600060608486031215612fc957612fc8612b7d565b5b6000612fd786828701612dca565b9350506020612fe886828701612dca565b9250506040612ff986828701612ba8565b9150509250925092565b6000806040838503121561301a57613019612b7d565b5b600061302885828601612ba8565b925050602061303985828601612ba8565b9150509250929050565b61304c81612b87565b82525050565b60006040820190506130676000830185612d89565b6130746020830184613043565b9392505050565b60006020828403121561309157613090612b7d565b5b600061309f84828501612dca565b91505092915050565b600081519050919050565b600082825260208201905092915050565b6000819050602082019050919050565b6130dd81612b87565b82525050565b60006130ef83836130d4565b60208301905092915050565b6000602082019050919050565b6000613113826130a8565b61311d81856130b3565b9350613128836130c4565b8060005b8381101561315957815161314088826130e3565b975061314b836130fb565b92505060018101905061312c565b5085935050505092915050565b600060208201905081810360008301526131808184613108565b905092915050565b600060208201905061319d6000830184613043565b92915050565b6000806000606084860312156131bc576131bb612b7d565b5b600084013567ffffffffffffffff8111156131da576131d9612b82565b5b6131e686828701612f26565b93505060206131f786828701612ba8565b925050604061320886828701612ba8565b9150509250925092565b61321b81612bea565b811461322657600080fd5b50565b60008135905061323881613212565b92915050565b6000806040838503121561325557613254612b7d565b5b600061326385828601612dca565b925050602061327485828601613229565b9150509250929050565b600067ffffffffffffffff82111561329957613298612e29565b5b6132a282612ceb565b9050602081019050919050565b60006132c26132bd8461327e565b612e89565b9050828152602081018484840111156132de576132dd612e24565b5b6132e9848285612ed5565b509392505050565b600082601f83011261330657613305612e1f565b5b81356133168482602086016132af565b91505092915050565b6000806000806080858703121561333957613338612b7d565b5b600061334787828801612dca565b945050602061335887828801612dca565b935050604061336987828801612ba8565b925050606085013567ffffffffffffffff81111561338a57613389612b82565b5b613396878288016132f1565b91505092959194509250565b600060a0820190506133b76000830188612d89565b6133c46020830187612d89565b6133d16040830186613043565b6133de6060830185612d89565b6133eb6080830184613043565b9695505050505050565b6000806040838503121561340c5761340b612b7d565b5b600061341a85828601612dca565b925050602061342b85828601612dca565b9150509250929050565b7f4e487b7100000000000000000000000000000000000000000000000000000000600052602260045260246000fd5b6000600282049050600182168061347c57607f821691505b60208210810361348f5761348e613435565b5b50919050565b60006060820190506134aa6000830186612d89565b6134b76020830185613043565b6134c46040830184612d89565b949350505050565b7f4e487b7100000000000000000000000000000000000000000000000000000000600052601160045260246000fd5b600061350682612b87565b915061351183612b87565b925082820261351f81612b87565b91508282048414831517613536576135356134cc565b5b5092915050565b7f4e487b7100000000000000000000000000000000000000000000000000000000600052601260045260246000fd5b600061357782612b87565b915061358283612b87565b9250826135925761359161353d565b5b828204905092915050565b60006040820190506135b26000830185613043565b6135bf6020830184613043565b9392505050565b60006135d182612b87565b91507fffffffffffffffffffffffffffffffffffffffffffffffffffffffffffffffff8203613603576136026134cc565b5b600182019050919050565b600060608201905081810360008301526136288186612cfc565b90506136376020830185613043565b6136446040830184613043565b949350505050565b600081905092915050565b600061366282612ca5565b61366c818561364c565b935061367c818560208601612cc1565b80840191505092915050565b60006136948285613657565b91506136a08284613657565b91508190509392505050565b7f4e487b7100000000000000000000000000000000000000000000000000000000600052603260045260246000fd5b60008190508160005260206000209050919050565b60006020601f8301049050919050565b600082821b905092915050565b60006008830261373d7fffffffffffffffffffffffffffffffffffffffffffffffffffffffffffffffff82613700565b6137478683613700565b95508019841693508086168417925050509392505050565b6000819050919050565b600061378461377f61377a84612b87565b61375f565b612b87565b9050919050565b6000819050919050565b61379e83613769565b6137b26137aa8261378b565b84845461370d565b825550505050565b600090565b6137c76137ba565b6137d2818484613795565b505050565b5b818110156137f6576137eb6000826137bf565b6001810190506137d8565b5050565b601f82111561383b5761380c816136db565b613815846136f0565b81016020851015613824578190505b613838613830856136f0565b8301826137d7565b50505b505050565b600082821c905092915050565b600061385e60001984600802613840565b1980831691505092915050565b6000613877838361384d565b9150826002028217905092915050565b61389082612ca5565b67ffffffffffffffff8111156138a9576138a8612e29565b5b6138b38254613464565b6138be8282856137fa565b600060209050601f8311600181146138f157600084156138df578287015190505b6138e9858261386b565b865550613951565b601f1984166138ff866136db565b60005b8281101561392757848901518255600182019150602085019450602081019050613902565b868310156139445784890151613940601f89168261384d565b8355505b6001600288020188555050505b505050505050565b600061396482612b87565b915061396f83612b87565b9250828203905081811115613987576139866134cc565b5b92915050565b7f4e487b7100000000000000000000000000000000000000000000000000000000600052603160045260246000fd5b60006bffffffffffffffffffffffff82169050919050565b60006139ef6139ea6139e5846139bc565b61375f565b612b87565b9050919050565b6139ff816139d4565b82525050565b6000606082019050613a1a6000830186613043565b613a2760208301856139f6565b613a346040830184613043565b949350505050565b6000604082019050613a516000830185613043565b613a5e6020830184612d89565b9392505050565b600081519050919050565b600082825260208201905092915050565b6000613a8c82613a65565b613a968185613a70565b9350613aa6818560208601612cc1565b613aaf81612ceb565b840191505092915050565b6000608082019050613acf6000830187612d89565b613adc6020830186612d89565b613ae96040830185613043565b8181036060830152613afb8184613a81565b905095945050505050565b600081519050613b1581612c4c565b92915050565b600060208284031215613b3157613b30612b7d565b5b6000613b3f84828501613b06565b9150509291505056fea26469706673582212202fcf28f846f63730065ac8f893b6e798046c83e29eea0eb641ce33ac92210f6d64736f6c634300081c0033",
  "linkReferences": {},
  "deployedLinkReferences": {}
}