{
  "_format": "hh-sol-artifact-1",
  "contractName": "NFTMarketplace",
  "sourceName": "contracts/NFTMarketplace.sol",
  "abi": [
    {
      "inputs": [],
      "stateMutability": "nonpayable",
      "type": "constructor"
    },
    {
      "inputs": [],
      "name": "FailedCall",
      "type": "error"
    },
    {
      "inputs": [
        {
          "internalType": "uint256",
          "name": "balance",
          "type": "uint256"
        },
        {
          "internalType": "uint256",
          "name": "needed",
          "type": "uint256"
        }
      ],
      "name": "InsufficientBalance",
      "type": "error"
    },
    {
      "inputs": [],
      "name": "InsufficientFunds",
      "type": "error"
    },
    {
      "inputs": [],
      "name": "ListingNotActive",
      "type": "error"
    },
    {
      "inputs": [],
      "name": "ListingNotFound",
      "type": "error"
    },
    {
      "inputs": [],
      "name": "NoPaymentsPending",
      "type": "error"
    },
    {
      "inputs": [],
      "name": "NotListingOwner",
      "type": "error"
    },
    {
      "inputs": [
        {
          "internalType": "address",
          "name": "owner",
          "type": "address"
        }
      ],
      "name": "OwnableInvalidOwner",
      "type": "error"
    },
    {
      "inputs": [
        {
          "internalType": "address",
          "name": "account",
          "type": "address"
        }
      ],
      "name": "OwnableUnauthorizedAccount",
      "type": "error"
    },
    {
      "inputs": [],
      "name": "ReentrancyGuardReentrantCall",
      "type": "error"
    },
    {
      "inputs": [],
      "name": "TransferFailed",
      "type": "error"
    },
    {
      "anonymous": false,
      "inputs": [
        {
          "indexed": true,
          "internalType": "uint256",
          "name": "listingId",
          "type": "uint256"
        },
        {
          "indexed": true,
          "internalType": "address",
          "name": "seller",
          "type": "address"
        },
        {
          "indexed": true,
          "internalType": "address",
          "name": "nftContract",
          "type": "address"
        },
        {
          "indexed": false,
          "internalType": "uint256",
          "name": "tokenId",
          "type": "uint256"
        },
        {
          "indexed": false,
          "internalType": "uint256",
          "name": "price",
          "type": "uint256"
        }
      ],
      "name": "NFTListed",
      "type": "event"
    },
    {
      "anonymous": false,
      "inputs": [
        {
          "indexed": true,
          "internalType": "uint256",
          "name": "listingId",
          "type": "uint256"
        },
        {
          "indexed": true,
          "internalType": "address",
          "name": "seller",
          "type": "address"
        },
        {
          "indexed": true,
          "internalType": "address",
          "name": "nftContract",
          "type": "address"
        },
        {
          "indexed": false,
          "internalType": "uint256",
          "name": "tokenId",
          "type": "uint256"
        }
      ],
      "name": "NFTListingCancelled",
      "type": "event"
    },
    {
      "anonymous": false,
      "inputs": [
        {
          "indexed": true,
          "internalType": "uint256",
          "name": "listingId",
          "type": "uint256"
        },
        {
          "indexed": true,
          "internalType": "address",
          "name": "seller",
          "type": "address"
        },
        {
          "indexed": true,
          "internalType": "address",
          "name": "buyer",
          "type": "address"
        },
        {
          "indexed": false,
          "internalType": "address",
          "name": "nftContract",
          "type": "address"
        },
        {
          "indexed": false,
          "internalType": "uint256",
          "name": "tokenId",
          "type": "uint256"
        },
        {
          "indexed": false,
          "internalType": "uint256",
          "name": "price",
          "type": "uint256"
        }
      ],
      "name": "NFTSold",
      "type": "event"
    },
    {
      "anonymous": false,
      "inputs": [
        {
          "indexed": true,
          "internalType": "address",
          "name": "previousOwner",
          "type": "address"
        },
        {
          "indexed": true,
          "internalType": "address",
          "name": "newOwner",
          "type": "address"
        }
      ],
      "name": "OwnershipTransferred",
      "type": "event"
    },
    {
      "anonymous": false,
      "inputs": [
        {
          "indexed": true,
          "internalType": "address",
          "name": "recipient",
          "type": "address"
        },
        {
          "indexed": false,
          "internalType": "uint256",
          "name": "amount",
          "type": "uint256"
        }
      ],
      "name": "PaymentWithdrawn",
      "type": "event"
    },
    {
      "inputs": [
        {
          "internalType": "uint256",
          "name": "listingId",
          "type": "uint256"
        }
      ],
      "name": "buyNFT",
      "outputs": [],
      "stateMutability": "payable",
      "type": "function"
    },
    {
      "inputs": [
        {
          "internalType": "uint256",
          "name": "listingId",
          "type": "uint256"
        }
      ],
      "name": "cancelListing",
      "outputs": [],
      "stateMutability": "nonpayable",
      "type": "function"
    },
    {
      "inputs": [
        {
          "internalType": "address",
          "name": "nftContract",
          "type": "address"
        },
        {
          "internalType": "uint256",
          "name": "tokenId",
          "type": "uint256"
        },
        {
          "internalType": "uint256",
          "name": "price",
          "type": "uint256"
        }
      ],
      "name": "createListing",
      "outputs": [
        {
          "internalType": "uint256",
          "name": "",
          "type": "uint256"
        }
      ],
      "stateMutability": "nonpayable",
      "type": "function"
    },
    {
      "inputs": [
        {
          "internalType": "uint256",
          "name": "start",
          "type": "uint256"
        },
        {
          "internalType": "uint256",
          "name": "limit",
          "type": "uint256"
        }
      ],
      "name": "getActiveListings",
      "outputs": [
        {
          "internalType": "uint256[]",
          "name": "listingIds",
          "type": "uint256[]"
        },
        {
          "internalType": "address[]",
          "name": "sellers",
          "type": "address[]"
        },
        {
          "internalType": "address[]",
          "name": "nftContracts",
          "type": "address[]"
        },
        {
          "internalType": "uint256[]",
          "name": "tokenIds",
          "type": "uint256[]"
        },
        {
          "internalType": "uint256[]",
          "name": "prices",
          "type": "uint256[]"
        }
      ],
      "stateMutability": "view",
      "type": "function"
    },
    {
      "inputs": [],
      "name": "getActiveListingsCount",
      "outputs": [
        {
          "internalType": "uint256",
          "name": "",
          "type": "uint256"
        }
      ],
      "stateMutability": "view",
      "type": "function"
    },
    {
      "inputs": [
        {
          "internalType": "address",
          "name": "nftContract",
          "type": "address"
        },
        {
          "internalType": "uint256",
          "name": "tokenId",
          "type": "uint256"
        }
      ],
      "name": "getListingByToken",
      "outputs": [
        {
          "internalType": "uint256",
          "name": "listingId",
          "type": "uint256"
        },
        {
          "internalType": "address",
          "name": "seller",
          "type": "address"
        },
        {
          "internalType": "uint256",
          "name": "price",
          "type": "uint256"
        },
        {
          "internalType": "bool",
          "name": "isActive",
          "type": "bool"
        }
      ],
      "stateMutability": "view",
      "type": "function"
    },
    {
      "inputs": [
        {
          "internalType": "address",
          "name": "seller",
          "type": "address"
        },
        {
          "internalType": "uint256",
          "name": "start",
          "type": "uint256"
        },
        {
          "internalType": "uint256",
          "name": "limit",
          "type": "uint256"
        }
      ],
      "name": "getListingsBySeller",
      "outputs": [
        {
          "internalType": "uint256[]",
          "name": "listingIds",
          "type": "uint256[]"
        },
        {
          "internalType": "address[]",
          "name": "nftContracts",
          "type": "address[]"
        },
        {
          "internalType": "uint256[]",
          "name": "tokenIds",
          "type": "uint256[]"
        },
        {
          "internalType": "uint256[]",
          "name": "prices",
          "type": "uint256[]"
        },
        {
          "internalType": "bool[]",
          "name": "isActive",
          "type": "bool[]"
        }
      ],
      "stateMutability": "view",
      "type": "function"
    },
    {
      "inputs": [
        {
          "internalType": "address",
          "name": "recipient",
          "type": "address"
        }
      ],
      "name": "getPendingPayment",
      "outputs": [
        {
          "internalType": "uint256",
          "name": "",
          "type": "uint256"
        }
      ],
      "stateMutability": "view",
      "type": "function"
    },
    {
      "inputs": [],
      "name": "getTotalListings",
      "outputs": [
        {
          "internalType": "uint256",
          "name": "",
          "type": "uint256"
        }
      ],
      "stateMutability": "view",
      "type": "function"
    },
    {
      "inputs": [
        {
          "internalType": "address",
          "name": "nftContract",
          "type": "address"
        },
        {
          "internalType": "uint256",
          "name": "tokenId",
          "type": "uint256"
        }
      ],
      "name": "isTokenListed",
      "outputs": [
        {
          "internalType": "bool",
          "name": "",
          "type": "bool"
        }
      ],
      "stateMutability": "view",
      "type": "function"
    },
    {
      "inputs": [
        {
          "internalType": "uint256",
          "name": "",
          "type": "uint256"
        }
      ],
      "name": "listings",
      "outputs": [
        {
          "internalType": "address",
          "name": "seller",
          "type": "address"
        },
        {
          "internalType": "address",
          "name": "nftContract",
          "type": "address"
        },
        {
          "internalType": "uint256",
          "name": "tokenId",
          "type": "uint256"
        },
        {
          "internalType": "uint256",
          "name": "price",
          "type": "uint256"
        },
        {
          "internalType": "bool",
          "name": "isActive",
          "type": "bool"
        }
      ],
      "stateMutability": "view",
      "type": "function"
    },
    {
      "inputs": [],
      "name": "marketFeePercentage",
      "outputs": [
        {
          "internalType": "uint256",
          "name": "",
          "type": "uint256"
        }
      ],
      "stateMutability": "view",
      "type": "function"
    },
    {
      "inputs": [
        {
          "internalType": "address",
          "name": "",
          "type": "address"
        },
        {
          "internalType": "address",
          "name": "",
          "type": "address"
        },
        {
          "internalType": "uint256",
          "name": "",
          "type": "uint256"
        },
        {
          "internalType": "bytes",
          "name": "",
          "type": "bytes"
        }
      ],
      "name": "onERC721Received",
      "outputs": [
        {
          "internalType": "bytes4",
          "name": "",
          "type": "bytes4"
        }
      ],
      "stateMutability": "nonpayable",
      "type": "function"
    },
    {
      "inputs": [],
      "name": "owner",
      "outputs": [
        {
          "internalType": "address",
          "name": "",
          "type": "address"
        }
      ],
      "stateMutability": "view",
      "type": "function"
    },
    {
      "inputs": [],
      "name": "renounceOwnership",
      "outputs": [],
      "stateMutability": "nonpayable",
      "type": "function"
    },
    {
      "inputs": [
        {
          "internalType": "address",
          "name": "newOwner",
          "type": "address"
        }
      ],
      "name": "transferOwnership",
      "outputs": [],
      "stateMutability": "nonpayable",
      "type": "function"
    },
    {
      "inputs": [],
      "name": "withdrawPayments",
      "outputs": [
        {
          "internalType": "uint256",
          "name": "",
          "type": "uint256"
        }
      ],
      "stateMutability": "nonpayable",
      "type": "function"
    }
  ],
  "bytecode": "0x608060405234801561001057600080fd5b5033600073ffffffffffffffffffffffffffffffffffffffff168173ffffffffffffffffffffffffffffffffffffffff16036100845760006040517f1e4fbdf700000000000000000000000000000000000000000000000000000000815260040161007b91906101a5565b60405180910390fd5b610093816100a060201b60201c565b50600180819055506101c0565b60008060009054906101000a900473ffffffffffffffffffffffffffffffffffffffff169050816000806101000a81548173ffffffffffffffffffffffffffffffffffffffff021916908373ffffffffffffffffffffffffffffffffffffffff1602179055508173ffffffffffffffffffffffffffffffffffffffff168173ffffffffffffffffffffffffffffffffffffffff167f8be0079c531659141344cd1fd0a4f28419497f9722a3daafe3b4186f6b6457e060405160405180910390a35050565b600073ffffffffffffffffffffffffffffffffffffffff82169050919050565b600061018f82610164565b9050919050565b61019f81610184565b82525050565b60006020820190506101ba6000830184610196565b92915050565b612e94806101cf6000396000f3fe6080604052600436106100fe5760003560e01c80637b55927c11610095578063de74e57b11610064578063de74e57b14610359578063e4cd1d9f1461039a578063f2fde38b146103c5578063fbf30c35146103ee578063fd59025e14610419576100fe565b80637b55927c146102815780638da5cb5b146102ac57806393a89553146102d7578063c128b23114610318576100fe565b806351ed8288116100d157806351ed8288146101e65780635471b47a146102025780636103d70b1461023f578063715018a61461026a576100fe565b8063150b7a021461010357806324780c5614610140578063248d9aa31461017d578063305a67a8146101bd575b600080fd5b34801561010f57600080fd5b5061012a600480360381019061012591906124c0565b610456565b604051610137919061257e565b60405180910390f35b34801561014c57600080fd5b5061016760048036038101906101629190612599565b61046a565b60405161017491906125fb565b60405180910390f35b34801561018957600080fd5b506101a4600480360381019061019f9190612616565b6106ab565b6040516101b49493929190612680565b60405180910390f35b3480156101c957600080fd5b506101e460048036038101906101df91906126c5565b610825565b005b61020060048036038101906101fb91906126c5565b610b35565b005b34801561020e57600080fd5b5061022960048036038101906102249190612616565b610f1b565b60405161023691906126f2565b60405180910390f35b34801561024b57600080fd5b5061025461100c565b60405161026191906125fb565b60405180910390f35b34801561027657600080fd5b5061027f61115f565b005b34801561028d57600080fd5b50610296611173565b6040516102a391906125fb565b60405180910390f35b3480156102b857600080fd5b506102c16111dd565b6040516102ce919061270d565b60405180910390f35b3480156102e357600080fd5b506102fe60048036038101906102f99190612599565b611206565b60405161030f959493929190612962565b60405180910390f35b34801561032457600080fd5b5061033f600480360381019061033a91906129d8565b611803565b604051610350959493929190612a18565b60405180910390f35b34801561036557600080fd5b50610380600480360381019061037b91906126c5565b611dba565b604051610391959493929190612a8e565b60405180910390f35b3480156103a657600080fd5b506103af611e3d565b6040516103bc91906125fb565b60405180910390f35b3480156103d157600080fd5b506103ec60048036038101906103e79190612ae1565b611e42565b005b3480156103fa57600080fd5b50610403611ec8565b60405161041091906125fb565b60405180910390f35b34801561042557600080fd5b50610440600480360381019061043b9190612ae1565b611ed2565b60405161044d91906125fb565b60405180910390f35b600063150b7a0260e01b9050949350505050565b6000610474611f1b565b6003600081548092919061048790612b3d565b9190505550600060035490506040518060a001604052803373ffffffffffffffffffffffffffffffffffffffff1681526020018673ffffffffffffffffffffffffffffffffffffffff168152602001858152602001848152602001600115158152506002600083815260200190815260200160002060008201518160000160006101000a81548173ffffffffffffffffffffffffffffffffffffffff021916908373ffffffffffffffffffffffffffffffffffffffff16021790555060208201518160010160006101000a81548173ffffffffffffffffffffffffffffffffffffffff021916908373ffffffffffffffffffffffffffffffffffffffff160217905550604082015181600201556060820151816003015560808201518160040160006101000a81548160ff0219169083151502179055509050508473ffffffffffffffffffffffffffffffffffffffff166342842e0e3330876040518463ffffffff1660e01b81526004016105fe93929190612b85565b600060405180830381600087803b15801561061857600080fd5b505af115801561062c573d6000803e3d6000fd5b505050508473ffffffffffffffffffffffffffffffffffffffff163373ffffffffffffffffffffffffffffffffffffffff16827fb0fe4922ac99799c17a4130d5c045ba2ecdf6e15b75b9ea84aaf0dc28724a42b8787604051610690929190612bbc565b60405180910390a4809150506106a4611f61565b9392505050565b6000806000806000600190505b600354811161080c578673ffffffffffffffffffffffffffffffffffffffff166002600083815260200190815260200160002060010160009054906101000a900473ffffffffffffffffffffffffffffffffffffffff1673ffffffffffffffffffffffffffffffffffffffff161480156107475750856002600083815260200190815260200160002060020154145b801561077357506002600082815260200190815260200160002060040160009054906101000a900460ff165b156107f957806002600083815260200190815260200160002060000160009054906101000a900473ffffffffffffffffffffffffffffffffffffffff1660026000848152602001908152602001600020600301546002600085815260200190815260200160002060040160009054906101000a900460ff1694509450945094505061081c565b808061080490612b3d565b9150506106b8565b5060008060008093509350935093505b92959194509250565b61082d611f1b565b6000600260008381526020019081526020016000209050600073ffffffffffffffffffffffffffffffffffffffff168160000160009054906101000a900473ffffffffffffffffffffffffffffffffffffffff1673ffffffffffffffffffffffffffffffffffffffff16036108ce576040517f7e43e63800000000000000000000000000000000000000000000000000000000815260040160405180910390fd5b3373ffffffffffffffffffffffffffffffffffffffff168160000160009054906101000a900473ffffffffffffffffffffffffffffffffffffffff1673ffffffffffffffffffffffffffffffffffffffff1614610957576040517f7c62d69f00000000000000000000000000000000000000000000000000000000815260040160405180910390fd5b8060040160009054906101000a900460ff1661099f576040517f66cb03e900000000000000000000000000000000000000000000000000000000815260040160405180910390fd5b60008160040160006101000a81548160ff0219169083151502179055508060010160009054906101000a900473ffffffffffffffffffffffffffffffffffffffff1673ffffffffffffffffffffffffffffffffffffffff166342842e0e308360000160009054906101000a900473ffffffffffffffffffffffffffffffffffffffff1684600201546040518463ffffffff1660e01b8152600401610a4593929190612b85565b600060405180830381600087803b158015610a5f57600080fd5b505af1158015610a73573d6000803e3d6000fd5b505050508060010160009054906101000a900473ffffffffffffffffffffffffffffffffffffffff1673ffffffffffffffffffffffffffffffffffffffff168160000160009054906101000a900473ffffffffffffffffffffffffffffffffffffffff1673ffffffffffffffffffffffffffffffffffffffff16837fffd353270db29d032b738bb1d3fba249eebe1fa177c646fa7ee93295531e0c498460020154604051610b2191906125fb565b60405180910390a450610b32611f61565b50565b610b3d611f1b565b6000600260008381526020019081526020016000209050600073ffffffffffffffffffffffffffffffffffffffff168160000160009054906101000a900473ffffffffffffffffffffffffffffffffffffffff1673ffffffffffffffffffffffffffffffffffffffff1603610bde576040517f7e43e63800000000000000000000000000000000000000000000000000000000815260040160405180910390fd5b60008160000160009054906101000a900473ffffffffffffffffffffffffffffffffffffffff16905060008260010160009054906101000a900473ffffffffffffffffffffffffffffffffffffffff16905060008360020154905060008460030154905080341015610c7c576040517f356680b700000000000000000000000000000000000000000000000000000000815260040160405180910390fd5b8460040160009054906101000a900460ff16610cc4576040517f66cb03e900000000000000000000000000000000000000000000000000000000815260040160405180910390fd5b60008560040160006101000a81548160ff0219169083151502179055506000819050610cef84611f6a565b15610d9b576000808573ffffffffffffffffffffffffffffffffffffffff16632a55205a86866040518363ffffffff1660e01b8152600401610d32929190612bbc565b6040805180830381865afa158015610d4e573d6000803e3d6000fd5b505050506040513d601f19601f82011682018060405250810190610d729190612c0f565b915091506000811115610d9857610d898282612016565b8083610d959190612c4f565b92505b50505b600061271060fa84610dad9190612c83565b610db79190612cf4565b90506000811115610de257610dd3610dcd6111dd565b82612016565b8082610ddf9190612c4f565b91505b610dec8683612016565b8473ffffffffffffffffffffffffffffffffffffffff166342842e0e3033876040518463ffffffff1660e01b8152600401610e2993929190612b85565b600060405180830381600087803b158015610e4357600080fd5b505af1158015610e57573d6000803e3d6000fd5b505050503373ffffffffffffffffffffffffffffffffffffffff168673ffffffffffffffffffffffffffffffffffffffff16897f88f63fa89cb6cf4da421a869453f09e48f4a2e670eb9dac1f4cd89afa5333372888888604051610ebd93929190612d25565b60405180910390a460008334610ed39190612c4f565b90506000811115610f0857610f07813373ffffffffffffffffffffffffffffffffffffffff1661207090919063ffffffff16565b5b5050505050505050610f18611f61565b50565b600080600190505b6003548111611000578373ffffffffffffffffffffffffffffffffffffffff166002600083815260200190815260200160002060010160009054906101000a900473ffffffffffffffffffffffffffffffffffffffff1673ffffffffffffffffffffffffffffffffffffffff16148015610fb25750826002600083815260200190815260200160002060020154145b8015610fde57506002600082815260200190815260200160002060040160009054906101000a900460ff165b15610fed576001915050611006565b8080610ff890612b3d565b915050610f23565b50600090505b92915050565b6000611016611f1b565b6000600460003373ffffffffffffffffffffffffffffffffffffffff1673ffffffffffffffffffffffffffffffffffffffff16815260200190815260200160002054905060008103611094576040517f7b746c7100000000000000000000000000000000000000000000000000000000815260040160405180910390fd5b6000600460003373ffffffffffffffffffffffffffffffffffffffff1673ffffffffffffffffffffffffffffffffffffffff16815260200190815260200160002081905550611102813373ffffffffffffffffffffffffffffffffffffffff1661207090919063ffffffff16565b3373ffffffffffffffffffffffffffffffffffffffff167f84511ecc081974f18e7f3e0dcc19db078b55bbd3852ddd0dd85b3aebb7bf94c28260405161114891906125fb565b60405180910390a28091505061115c611f61565b90565b61116761213a565b61117160006121c1565b565b600080600090506000600190505b60035481116111d5576002600082815260200190815260200160002060040160009054906101000a900460ff16156111c25781806111be90612b3d565b9250505b80806111cd90612b3d565b915050611181565b508091505090565b60008060009054906101000a900473ffffffffffffffffffffffffffffffffffffffff16905090565b6060806060806060600080600190505b60035481116112aa578973ffffffffffffffffffffffffffffffffffffffff166002600083815260200190815260200160002060000160009054906101000a900473ffffffffffffffffffffffffffffffffffffffff1673ffffffffffffffffffffffffffffffffffffffff160361129757818061129390612b3d565b9250505b80806112a290612b3d565b915050611216565b5080881061143457600067ffffffffffffffff8111156112cd576112cc612395565b5b6040519080825280602002602001820160405280156112fb5781602001602082028036833780820191505090505b50600067ffffffffffffffff81111561131757611316612395565b5b6040519080825280602002602001820160405280156113455781602001602082028036833780820191505090505b50600067ffffffffffffffff81111561136157611360612395565b5b60405190808252806020026020018201604052801561138f5781602001602082028036833780820191505090505b50600067ffffffffffffffff8111156113ab576113aa612395565b5b6040519080825280602002602001820160405280156113d95781602001602082028036833780820191505090505b50600067ffffffffffffffff8111156113f5576113f4612395565b5b6040519080825280602002602001820160405280156114235781602001602082028036833780820191505090505b5095509550955095509550506117f8565b600087896114429190612d5c565b905081811115611450578190505b6000898261145e9190612c4f565b90508067ffffffffffffffff81111561147a57611479612395565b5b6040519080825280602002602001820160405280156114a85781602001602082028036833780820191505090505b5097508067ffffffffffffffff8111156114c5576114c4612395565b5b6040519080825280602002602001820160405280156114f35781602001602082028036833780820191505090505b5096508067ffffffffffffffff8111156115105761150f612395565b5b60405190808252806020026020018201604052801561153e5781602001602082028036833780820191505090505b5095508067ffffffffffffffff81111561155b5761155a612395565b5b6040519080825280602002602001820160405280156115895781602001602082028036833780820191505090505b5094508067ffffffffffffffff8111156115a6576115a5612395565b5b6040519080825280602002602001820160405280156115d45781602001602082028036833780820191505090505b5093506000806000600190505b60035481111580156115f257508382105b156117f1578d73ffffffffffffffffffffffffffffffffffffffff166002600083815260200190815260200160002060000160009054906101000a900473ffffffffffffffffffffffffffffffffffffffff1673ffffffffffffffffffffffffffffffffffffffff16036117de578c83106117cf57808b838151811061167b5761167a612d90565b5b6020026020010181815250506002600082815260200190815260200160002060010160009054906101000a900473ffffffffffffffffffffffffffffffffffffffff168a83815181106116d1576116d0612d90565b5b602002602001019073ffffffffffffffffffffffffffffffffffffffff16908173ffffffffffffffffffffffffffffffffffffffff1681525050600260008281526020019081526020016000206002015489838151811061173557611734612d90565b5b602002602001018181525050600260008281526020019081526020016000206003015488838151811061176b5761176a612d90565b5b6020026020010181815250506002600082815260200190815260200160002060040160009054906101000a900460ff168783815181106117ae576117ad612d90565b5b60200260200101901515908115158152505081806117cb90612b3d565b9250505b82806117da90612b3d565b9350505b80806117e990612b3d565b9150506115e1565b5050505050505b939792965093509350565b6060806060806060600080600190505b6003548111611867576002600082815260200190815260200160002060040160009054906101000a900460ff161561185457818061185090612b3d565b9250505b808061185f90612b3d565b915050611813565b508088106119f157600067ffffffffffffffff81111561188a57611889612395565b5b6040519080825280602002602001820160405280156118b85781602001602082028036833780820191505090505b50600067ffffffffffffffff8111156118d4576118d3612395565b5b6040519080825280602002602001820160405280156119025781602001602082028036833780820191505090505b50600067ffffffffffffffff81111561191e5761191d612395565b5b60405190808252806020026020018201604052801561194c5781602001602082028036833780820191505090505b50600067ffffffffffffffff81111561196857611967612395565b5b6040519080825280602002602001820160405280156119965781602001602082028036833780820191505090505b50600067ffffffffffffffff8111156119b2576119b1612395565b5b6040519080825280602002602001820160405280156119e05781602001602082028036833780820191505090505b509550955095509550955050611db0565b600087896119ff9190612d5c565b905081811115611a0d578190505b60008982611a1b9190612c4f565b90508067ffffffffffffffff811115611a3757611a36612395565b5b604051908082528060200260200182016040528015611a655781602001602082028036833780820191505090505b5097508067ffffffffffffffff811115611a8257611a81612395565b5b604051908082528060200260200182016040528015611ab05781602001602082028036833780820191505090505b5096508067ffffffffffffffff811115611acd57611acc612395565b5b604051908082528060200260200182016040528015611afb5781602001602082028036833780820191505090505b5095508067ffffffffffffffff811115611b1857611b17612395565b5b604051908082528060200260200182016040528015611b465781602001602082028036833780820191505090505b5094508067ffffffffffffffff811115611b6357611b62612395565b5b604051908082528060200260200182016040528015611b915781602001602082028036833780820191505090505b5093506000806000600190505b6003548111158015611baf57508382105b15611da9576002600082815260200190815260200160002060040160009054906101000a900460ff1615611d96578c8310611d8757808b8381518110611bf857611bf7612d90565b5b6020026020010181815250506002600082815260200190815260200160002060000160009054906101000a900473ffffffffffffffffffffffffffffffffffffffff168a8381518110611c4e57611c4d612d90565b5b602002602001019073ffffffffffffffffffffffffffffffffffffffff16908173ffffffffffffffffffffffffffffffffffffffff16815250506002600082815260200190815260200160002060010160009054906101000a900473ffffffffffffffffffffffffffffffffffffffff16898381518110611cd257611cd1612d90565b5b602002602001019073ffffffffffffffffffffffffffffffffffffffff16908173ffffffffffffffffffffffffffffffffffffffff16815250506002600082815260200190815260200160002060020154888381518110611d3657611d35612d90565b5b6020026020010181815250506002600082815260200190815260200160002060030154878381518110611d6c57611d6b612d90565b5b6020026020010181815250508180611d8390612b3d565b9250505b8280611d9290612b3d565b9350505b8080611da190612b3d565b915050611b9e565b5050505050505b9295509295909350565b60026020528060005260406000206000915090508060000160009054906101000a900473ffffffffffffffffffffffffffffffffffffffff16908060010160009054906101000a900473ffffffffffffffffffffffffffffffffffffffff16908060020154908060030154908060040160009054906101000a900460ff16905085565b60fa81565b611e4a61213a565b600073ffffffffffffffffffffffffffffffffffffffff168173ffffffffffffffffffffffffffffffffffffffff1603611ebc5760006040517f1e4fbdf7000000000000000000000000000000000000000000000000000000008152600401611eb3919061270d565b60405180910390fd5b611ec5816121c1565b50565b6000600354905090565b6000600460008373ffffffffffffffffffffffffffffffffffffffff1673ffffffffffffffffffffffffffffffffffffffff168152602001908152602001600020549050919050565b600260015403611f57576040517f3ee5aeb500000000000000000000000000000000000000000000000000000000815260040160405180910390fd5b6002600181905550565b60018081905550565b60008173ffffffffffffffffffffffffffffffffffffffff166301ffc9a77f2a55205a000000000000000000000000000000000000000000000000000000006040518263ffffffff1660e01b8152600401611fc5919061257e565b602060405180830381865afa925050508015611fff57506040513d601f19601f82011682018060405250810190611ffc9190612deb565b60015b61200c5760009050612011565b809150505b919050565b80600460008473ffffffffffffffffffffffffffffffffffffffff1673ffffffffffffffffffffffffffffffffffffffff16815260200190815260200160002060008282546120659190612d5c565b925050819055505050565b804710156120b75747816040517fcf4791810000000000000000000000000000000000000000000000000000000081526004016120ae929190612bbc565b60405180910390fd5b6000808373ffffffffffffffffffffffffffffffffffffffff16836040516120de90612e49565b60006040518083038185875af1925050503d806000811461211b576040519150601f19603f3d011682016040523d82523d6000602084013e612120565b606091505b5091509150816121345761213381612285565b5b50505050565b6121426122ca565b73ffffffffffffffffffffffffffffffffffffffff166121606111dd565b73ffffffffffffffffffffffffffffffffffffffff16146121bf576121836122ca565b6040517f118cdaa70000000000000000000000000000000000000000000000000000000081526004016121b6919061270d565b60405180910390fd5b565b60008060009054906101000a900473ffffffffffffffffffffffffffffffffffffffff169050816000806101000a81548173ffffffffffffffffffffffffffffffffffffffff021916908373ffffffffffffffffffffffffffffffffffffffff1602179055508173ffffffffffffffffffffffffffffffffffffffff168173ffffffffffffffffffffffffffffffffffffffff167f8be0079c531659141344cd1fd0a4f28419497f9722a3daafe3b4186f6b6457e060405160405180910390a35050565b6000815111156122985780518082602001fd5b6040517fd6bda27500000000000000000000000000000000000000000000000000000000815260040160405180910390fd5b600033905090565b6000604051905090565b600080fd5b600080fd5b600073ffffffffffffffffffffffffffffffffffffffff82169050919050565b6000612311826122e6565b9050919050565b61232181612306565b811461232c57600080fd5b50565b60008135905061233e81612318565b92915050565b6000819050919050565b61235781612344565b811461236257600080fd5b50565b6000813590506123748161234e565b92915050565b600080fd5b600080fd5b6000601f19601f8301169050919050565b7f4e487b7100000000000000000000000000000000000000000000000000000000600052604160045260246000fd5b6123cd82612384565b810181811067ffffffffffffffff821117156123ec576123eb612395565b5b80604052505050565b60006123ff6122d2565b905061240b82826123c4565b919050565b600067ffffffffffffffff82111561242b5761242a612395565b5b61243482612384565b9050602081019050919050565b82818337600083830152505050565b600061246361245e84612410565b6123f5565b90508281526020810184848401111561247f5761247e61237f565b5b61248a848285612441565b509392505050565b600082601f8301126124a7576124a661237a565b5b81356124b7848260208601612450565b91505092915050565b600080600080608085870312156124da576124d96122dc565b5b60006124e88782880161232f565b94505060206124f98782880161232f565b935050604061250a87828801612365565b925050606085013567ffffffffffffffff81111561252b5761252a6122e1565b5b61253787828801612492565b91505092959194509250565b60007fffffffff0000000000000000000000000000000000000000000000000000000082169050919050565b61257881612543565b82525050565b6000602082019050612593600083018461256f565b92915050565b6000806000606084860312156125b2576125b16122dc565b5b60006125c08682870161232f565b93505060206125d186828701612365565b92505060406125e286828701612365565b9150509250925092565b6125f581612344565b82525050565b600060208201905061261060008301846125ec565b92915050565b6000806040838503121561262d5761262c6122dc565b5b600061263b8582860161232f565b925050602061264c85828601612365565b9150509250929050565b61265f81612306565b82525050565b60008115159050919050565b61267a81612665565b82525050565b600060808201905061269560008301876125ec565b6126a26020830186612656565b6126af60408301856125ec565b6126bc6060830184612671565b95945050505050565b6000602082840312156126db576126da6122dc565b5b60006126e984828501612365565b91505092915050565b60006020820190506127076000830184612671565b92915050565b60006020820190506127226000830184612656565b92915050565b600081519050919050565b600082825260208201905092915050565b6000819050602082019050919050565b61275d81612344565b82525050565b600061276f8383612754565b60208301905092915050565b6000602082019050919050565b600061279382612728565b61279d8185612733565b93506127a883612744565b8060005b838110156127d95781516127c08882612763565b97506127cb8361277b565b9250506001810190506127ac565b5085935050505092915050565b600081519050919050565b600082825260208201905092915050565b6000819050602082019050919050565b61281b81612306565b82525050565b600061282d8383612812565b60208301905092915050565b6000602082019050919050565b6000612851826127e6565b61285b81856127f1565b935061286683612802565b8060005b8381101561289757815161287e8882612821565b975061288983612839565b92505060018101905061286a565b5085935050505092915050565b600081519050919050565b600082825260208201905092915050565b6000819050602082019050919050565b6128d981612665565b82525050565b60006128eb83836128d0565b60208301905092915050565b6000602082019050919050565b600061290f826128a4565b61291981856128af565b9350612924836128c0565b8060005b8381101561295557815161293c88826128df565b9750612947836128f7565b925050600181019050612928565b5085935050505092915050565b600060a082019050818103600083015261297c8188612788565b905081810360208301526129908187612846565b905081810360408301526129a48186612788565b905081810360608301526129b88185612788565b905081810360808301526129cc8184612904565b90509695505050505050565b600080604083850312156129ef576129ee6122dc565b5b60006129fd85828601612365565b9250506020612a0e85828601612365565b9150509250929050565b600060a0820190508181036000830152612a328188612788565b90508181036020830152612a468187612846565b90508181036040830152612a5a8186612846565b90508181036060830152612a6e8185612788565b90508181036080830152612a828184612788565b90509695505050505050565b600060a082019050612aa36000830188612656565b612ab06020830187612656565b612abd60408301866125ec565b612aca60608301856125ec565b612ad76080830184612671565b9695505050505050565b600060208284031215612af757612af66122dc565b5b6000612b058482850161232f565b91505092915050565b7f4e487b7100000000000000000000000000000000000000000000000000000000600052601160045260246000fd5b6000612b4882612344565b91507fffffffffffffffffffffffffffffffffffffffffffffffffffffffffffffffff8203612b7a57612b79612b0e565b5b600182019050919050565b6000606082019050612b9a6000830186612656565b612ba76020830185612656565b612bb460408301846125ec565b949350505050565b6000604082019050612bd160008301856125ec565b612bde60208301846125ec565b9392505050565b600081519050612bf481612318565b92915050565b600081519050612c098161234e565b92915050565b60008060408385031215612c2657612c256122dc565b5b6000612c3485828601612be5565b9250506020612c4585828601612bfa565b9150509250929050565b6000612c5a82612344565b9150612c6583612344565b9250828203905081811115612c7d57612c7c612b0e565b5b92915050565b6000612c8e82612344565b9150612c9983612344565b9250828202612ca781612344565b91508282048414831517612cbe57612cbd612b0e565b5b5092915050565b7f4e487b7100000000000000000000000000000000000000000000000000000000600052601260045260246000fd5b6000612cff82612344565b9150612d0a83612344565b925082612d1a57612d19612cc5565b5b828204905092915050565b6000606082019050612d3a6000830186612656565b612d4760208301856125ec565b612d5460408301846125ec565b949350505050565b6000612d6782612344565b9150612d7283612344565b9250828201905080821115612d8a57612d89612b0e565b5b92915050565b7f4e487b7100000000000000000000000000000000000000000000000000000000600052603260045260246000fd5b612dc881612665565b8114612dd357600080fd5b50565b600081519050612de581612dbf565b92915050565b600060208284031215612e0157612e006122dc565b5b6000612e0f84828501612dd6565b91505092915050565b600081905092915050565b50565b6000612e33600083612e18565b9150612e3e82612e23565b600082019050919050565b6000612e5482612e26565b915081905091905056fea2646970667358221220399428afa7d87882815c71130ee4a2f1f8d8013282f274b44ac882003e29386364736f6c634300081c0033",
  "linkReferences": {},
  "deployedLinkReferences": {}
}