{
  "_format": "hh-sol-artifact-1",
  "contractName": "NFTStreaming",
  "sourceName": "contracts/NFTStreaming.sol",
  "abi": [
    {
      "inputs": [],
      "stateMutability": "nonpayable",
      "type": "constructor"
    },
    {
      "inputs": [],
      "name": "FailedCall",
      "type": "error"
    },
    {
      "inputs": [
        {
          "internalType": "uint256",
          "name": "balance",
          "type": "uint256"
        },
        {
          "internalType": "uint256",
          "name": "needed",
          "type": "uint256"
        }
      ],
      "name": "InsufficientBalance",
      "type": "error"
    },
    {
      "inputs": [],
      "name": "InsufficientPayment",
      "type": "error"
    },
    {
      "inputs": [],
      "name": "InvalidListenCount",
      "type": "error"
    },
    {
      "inputs": [],
      "name": "NoPaymentsPending",
      "type": "error"
    },
    {
      "inputs": [
        {
          "internalType": "address",
          "name": "nftContract",
          "type": "address"
        },
        {
          "internalType": "uint256",
          "name": "tokenId",
          "type": "uint256"
        }
      ],
      "name": "NonexistentToken",
      "type": "error"
    },
    {
      "inputs": [
        {
          "internalType": "address",
          "name": "owner",
          "type": "address"
        }
      ],
      "name": "OwnableInvalidOwner",
      "type": "error"
    },
    {
      "inputs": [
        {
          "internalType": "address",
          "name": "account",
          "type": "address"
        }
      ],
      "name": "OwnableUnauthorizedAccount",
      "type": "error"
    },
    {
      "inputs": [],
      "name": "ReentrancyGuardReentrantCall",
      "type": "error"
    },
    {
      "inputs": [],
      "name": "TransferFailed",
      "type": "error"
    },
    {
      "inputs": [
        {
          "internalType": "address",
          "name": "nftContract",
          "type": "address"
        }
      ],
      "name": "UnsupportedNFTContract",
      "type": "error"
    },
    {
      "anonymous": false,
      "inputs": [
        {
          "indexed": true,
          "internalType": "address",
          "name": "nftContract",
          "type": "address"
        },
        {
          "indexed": true,
          "internalType": "uint256",
          "name": "tokenId",
          "type": "uint256"
        },
        {
          "indexed": false,
          "internalType": "uint256",
          "name": "count",
          "type": "uint256"
        },
        {
          "indexed": false,
          "internalType": "uint256",
          "name": "royaltyAmount",
          "type": "uint256"
        }
      ],
      "name": "BatchListensRecorded",
      "type": "event"
    },
    {
      "anonymous": false,
      "inputs": [
        {
          "indexed": true,
          "internalType": "address",
          "name": "previousOwner",
          "type": "address"
        },
        {
          "indexed": true,
          "internalType": "address",
          "name": "newOwner",
          "type": "address"
        }
      ],
      "name": "OwnershipTransferred",
      "type": "event"
    },
    {
      "anonymous": false,
      "inputs": [
        {
          "indexed": true,
          "internalType": "address",
          "name": "recipient",
          "type": "address"
        },
        {
          "indexed": false,
          "internalType": "uint256",
          "name": "amount",
          "type": "uint256"
        }
      ],
      "name": "PaymentWithdrawn",
      "type": "event"
    },
    {
      "inputs": [
        {
          "internalType": "address",
          "name": "nftContract",
          "type": "address"
        },
        {
          "internalType": "uint256",
          "name": "tokenId",
          "type": "uint256"
        }
      ],
      "name": "getListenCount",
      "outputs": [
        {
          "internalType": "uint256",
          "name": "",
          "type": "uint256"
        }
      ],
      "stateMutability": "view",
      "type": "function"
    },
    {
      "inputs": [
        {
          "internalType": "address",
          "name": "nftContract",
          "type": "address"
        },
        {
          "internalType": "address",
          "name": "creator",
          "type": "address"
        }
      ],
      "name": "getListenDataByCreator",
      "outputs": [
        {
          "internalType": "uint256[]",
          "name": "tokenIds",
          "type": "uint256[]"
        },
        {
          "internalType": "uint256[]",
          "name": "listenCounts",
          "type": "uint256[]"
        }
      ],
      "stateMutability": "view",
      "type": "function"
    },
    {
      "inputs": [
        {
          "internalType": "address",
          "name": "recipient",
          "type": "address"
        }
      ],
      "name": "getPendingPayment",
      "outputs": [
        {
          "internalType": "uint256",
          "name": "",
          "type": "uint256"
        }
      ],
      "stateMutability": "view",
      "type": "function"
    },
    {
      "inputs": [
        {
          "internalType": "address",
          "name": "nftContract",
          "type": "address"
        },
        {
          "internalType": "uint256",
          "name": "limit",
          "type": "uint256"
        }
      ],
      "name": "getTopListenedTokens",
      "outputs": [
        {
          "internalType": "uint256[]",
          "name": "tokenIds",
          "type": "uint256[]"
        },
        {
          "internalType": "uint256[]",
          "name": "listenCounts",
          "type": "uint256[]"
        }
      ],
      "stateMutability": "view",
      "type": "function"
    },
    {
      "inputs": [
        {
          "internalType": "address",
          "name": "nftContract",
          "type": "address"
        }
      ],
      "name": "getTotalListenCount",
      "outputs": [
        {
          "internalType": "uint256",
          "name": "",
          "type": "uint256"
        }
      ],
      "stateMutability": "view",
      "type": "function"
    },
    {
      "inputs": [],
      "name": "owner",
      "outputs": [
        {
          "internalType": "address",
          "name": "",
          "type": "address"
        }
      ],
      "stateMutability": "view",
      "type": "function"
    },
    {
      "inputs": [
        {
          "internalType": "address",
          "name": "nftContract",
          "type": "address"
        },
        {
          "internalType": "uint256",
          "name": "tokenId",
          "type": "uint256"
        },
        {
          "internalType": "uint256",
          "name": "count",
          "type": "uint256"
        },
        {
          "internalType": "uint256",
          "name": "amount",
          "type": "uint256"
        }
      ],
      "name": "recordBatchListens",
      "outputs": [],
      "stateMutability": "payable",
      "type": "function"
    },
    {
      "inputs": [],
      "name": "renounceOwnership",
      "outputs": [],
      "stateMutability": "nonpayable",
      "type": "function"
    },
    {
      "inputs": [
        {
          "internalType": "address",
          "name": "newOwner",
          "type": "address"
        }
      ],
      "name": "transferOwnership",
      "outputs": [],
      "stateMutability": "nonpayable",
      "type": "function"
    },
    {
      "inputs": [],
      "name": "withdrawPayments",
      "outputs": [
        {
          "internalType": "uint256",
          "name": "",
          "type": "uint256"
        }
      ],
      "stateMutability": "nonpayable",
      "type": "function"
    }
  ],
  "bytecode": "0x608060405234801561001057600080fd5b5033600073ffffffffffffffffffffffffffffffffffffffff168173ffffffffffffffffffffffffffffffffffffffff16036100845760006040517f1e4fbdf700000000000000000000000000000000000000000000000000000000815260040161007b91906101a5565b60405180910390fd5b610093816100a060201b60201c565b50600180819055506101c0565b60008060009054906101000a900473ffffffffffffffffffffffffffffffffffffffff169050816000806101000a81548173ffffffffffffffffffffffffffffffffffffffff021916908373ffffffffffffffffffffffffffffffffffffffff1602179055508173ffffffffffffffffffffffffffffffffffffffff168173ffffffffffffffffffffffffffffffffffffffff167f8be0079c531659141344cd1fd0a4f28419497f9722a3daafe3b4186f6b6457e060405160405180910390a35050565b600073ffffffffffffffffffffffffffffffffffffffff82169050919050565b600061018f82610164565b9050919050565b61019f81610184565b82525050565b60006020820190506101ba6000830184610196565b92915050565b611cfc806101cf6000396000f3fe6080604052600436106100915760003560e01c8063b02bc76311610059578063b02bc7631461017e578063bb58f8ed146101bc578063ebbbecf5146101f9578063f2fde38b14610215578063fd59025e1461023e57610091565b80630142d30f1461009657806335f8fa99146100d45780636103d70b14610111578063715018a61461013c5780638da5cb5b14610153575b600080fd5b3480156100a257600080fd5b506100bd60048036038101906100b891906115c5565b61027b565b6040516100cb9291906116cd565b60405180910390f35b3480156100e057600080fd5b506100fb60048036038101906100f69190611730565b6104b5565b604051610108919061177f565b60405180910390f35b34801561011d57600080fd5b5061012661055d565b604051610133919061177f565b60405180910390f35b34801561014857600080fd5b506101516106b0565b005b34801561015f57600080fd5b506101686106c4565b60405161017591906117a9565b60405180910390f35b34801561018a57600080fd5b506101a560048036038101906101a09190611730565b6106ed565b6040516101b39291906116cd565b60405180910390f35b3480156101c857600080fd5b506101e360048036038101906101de91906117c4565b610b10565b6040516101f0919061177f565b60405180910390f35b610213600480360381019061020e91906117f1565b610ca4565b005b34801561022157600080fd5b5061023c600480360381019061023791906117c4565b6110bc565b005b34801561024a57600080fd5b50610265600480360381019061026091906117c4565b611142565b604051610272919061177f565b60405180910390f35b6060808373ffffffffffffffffffffffffffffffffffffffff1663ddc0f312846040518263ffffffff1660e01b81526004016102b791906117a9565b600060405180830381865afa9250505080156102f657506040513d6000823e3d601f19601f820116820180604052508101906102f391906119c6565b60015b61033757836040517fcf32e9bf00000000000000000000000000000000000000000000000000000000815260040161032e91906117a9565b60405180910390fd5b805167ffffffffffffffff8111156103525761035161186e565b5b6040519080825280602002602001820160405280156103805781602001602082028036833780820191505090505b509250805167ffffffffffffffff81111561039e5761039d61186e565b5b6040519080825280602002602001820160405280156103cc5781602001602082028036833780820191505090505b50915060005b81518110156104ac578181815181106103ee576103ed611a0f565b5b602002602001015184828151811061040957610408611a0f565b5b602002602001018181525050600360008773ffffffffffffffffffffffffffffffffffffffff1673ffffffffffffffffffffffffffffffffffffffff168152602001908152602001600020600083838151811061046957610468611a0f565b5b602002602001015181526020019081526020016000205483828151811061049357610492611a0f565b5b60200260200101818152505080806001019150506103d2565b50509250929050565b60006104c1838361118b565b6105045782826040517f95b1765b0000000000000000000000000000000000000000000000000000000081526004016104fb929190611a3e565b60405180910390fd5b600360008473ffffffffffffffffffffffffffffffffffffffff1673ffffffffffffffffffffffffffffffffffffffff168152602001908152602001600020600083815260200190815260200160002054905092915050565b6000610567611248565b6000600260003373ffffffffffffffffffffffffffffffffffffffff1673ffffffffffffffffffffffffffffffffffffffff168152602001908152602001600020549050600081036105e5576040517f7b746c7100000000000000000000000000000000000000000000000000000000815260040160405180910390fd5b6000600260003373ffffffffffffffffffffffffffffffffffffffff1673ffffffffffffffffffffffffffffffffffffffff16815260200190815260200160002081905550610653813373ffffffffffffffffffffffffffffffffffffffff1661128e90919063ffffffff16565b3373ffffffffffffffffffffffffffffffffffffffff167f84511ecc081974f18e7f3e0dcc19db078b55bbd3852ddd0dd85b3aebb7bf94c282604051610699919061177f565b60405180910390a2809150506106ad611358565b90565b6106b8611361565b6106c260006113e8565b565b60008060009054906101000a900473ffffffffffffffffffffffffffffffffffffffff16905090565b60608060008473ffffffffffffffffffffffffffffffffffffffff1663c4e41b226040518163ffffffff1660e01b8152600401602060405180830381865afa92505050801561075a57506040513d601f19601f820116820180604052508101906107579190611a67565b60015b61079b57846040517fcf32e9bf00000000000000000000000000000000000000000000000000000000815260040161079291906117a9565b60405180910390fd5b8091505060008167ffffffffffffffff8111156107bb576107ba61186e565b5b6040519080825280602002602001820160405280156107e95781602001602082028036833780820191505090505b50905060008267ffffffffffffffff8111156108085761080761186e565b5b6040519080825280602002602001820160405280156108365781602001602082028036833780820191505090505b509050600080600190505b848111610953576000600360008b73ffffffffffffffffffffffffffffffffffffffff1673ffffffffffffffffffffffffffffffffffffffff168152602001908152602001600020600083815260200190815260200160002054111561094057808483815181106108b5576108b4611a0f565b5b602002602001018181525050600360008a73ffffffffffffffffffffffffffffffffffffffff1673ffffffffffffffffffffffffffffffffffffffff16815260200190815260200160002060008281526020019081526020016000205483838151811061092557610924611a0f565b5b602002602001018181525050818061093c90611ac3565b9250505b808061094b90611ac3565b915050610841565b5080871115610960578096505b8667ffffffffffffffff81111561097a5761097961186e565b5b6040519080825280602002602001820160405280156109a85781602001602082028036833780820191505090505b5095508667ffffffffffffffff8111156109c5576109c461186e565b5b6040519080825280602002602001820160405280156109f35781602001602082028036833780820191505090505b50945060005b87811015610b045760008060005b84811015610a5f5781868281518110610a2357610a22611a0f565b5b60200260200101511115610a5257858181518110610a4457610a43611a0f565b5b602002602001015191508092505b8080600101915050610a07565b50858281518110610a7357610a72611a0f565b5b6020026020010151898481518110610a8e57610a8d611a0f565b5b602002602001018181525050848281518110610aad57610aac611a0f565b5b6020026020010151888481518110610ac857610ac7611a0f565b5b6020026020010181815250506000858381518110610ae957610ae8611a0f565b5b602002602001018181525050505080806001019150506109f9565b50505050509250929050565b600080600090508273ffffffffffffffffffffffffffffffffffffffff1663c4e41b226040518163ffffffff1660e01b8152600401602060405180830381865afa925050508015610b7f57506040513d601f19601f82011682018060405250810190610b7c9190611a67565b60015b610bc057826040517fcf32e9bf000000000000000000000000000000000000000000000000000000008152600401610bb791906117a9565b60405180910390fd5b6000600190505b818111610c99576000600360008773ffffffffffffffffffffffffffffffffffffffff1673ffffffffffffffffffffffffffffffffffffffff1681526020019081526020016000206000838152602001908152602001600020541115610c8657600360008673ffffffffffffffffffffffffffffffffffffffff1673ffffffffffffffffffffffffffffffffffffffff16815260200190815260200160002060008281526020019081526020016000205483610c839190611b0b565b92505b8080610c9190611ac3565b915050610bc7565b505080915050919050565b610cae848461118b565b610cf15783836040517f95b1765b000000000000000000000000000000000000000000000000000000008152600401610ce8929190611a3e565b60405180910390fd5b60008203610d2b576040517f7b2c26a900000000000000000000000000000000000000000000000000000000815260040160405180910390fd5b80341015610d65576040517fcd1c886700000000000000000000000000000000000000000000000000000000815260040160405180910390fd5b81600360008673ffffffffffffffffffffffffffffffffffffffff1673ffffffffffffffffffffffffffffffffffffffff16815260200190815260200160002060008581526020019081526020016000206000828254610dc59190611b0b565b9250508190555060008190508473ffffffffffffffffffffffffffffffffffffffff166373b8bded856040518263ffffffff1660e01b8152600401610e0a919061177f565b602060405180830381865afa925050508015610e4457506040513d601f19601f82011682018060405250810190610e419190611a67565b60015b610ed65760008573ffffffffffffffffffffffffffffffffffffffff16636352211e866040518263ffffffff1660e01b8152600401610e83919061177f565b602060405180830381865afa158015610ea0573d6000803e3d6000fd5b505050506040513d601f19601f82011682018060405250810190610ec49190611b54565b9050610ed081836114ac565b50611020565b60006127108285610ee79190611b81565b610ef19190611bf2565b90506000811115610f945760008773ffffffffffffffffffffffffffffffffffffffff16636352211e886040518263ffffffff1660e01b8152600401610f37919061177f565b602060405180830381865afa158015610f54573d6000803e3d6000fd5b505050506040513d601f19601f82011682018060405250810190610f789190611b54565b9050610f8481836114ac565b8184610f909190611c23565b9350505b60008773ffffffffffffffffffffffffffffffffffffffff1663d48e638a886040518263ffffffff1660e01b8152600401610fcf919061177f565b602060405180830381865afa158015610fec573d6000803e3d6000fd5b505050506040513d601f19601f820116820180604052508101906110109190611b54565b905061101c81856114ac565b5050505b838573ffffffffffffffffffffffffffffffffffffffff167fd56a145a2705780cc983856f96bd054e591399eb7fd19253923cdfad964e730a8585604051611069929190611c57565b60405180910390a36000823461107f9190611c23565b905060008111156110b4576110b3813373ffffffffffffffffffffffffffffffffffffffff1661128e90919063ffffffff16565b5b505050505050565b6110c4611361565b600073ffffffffffffffffffffffffffffffffffffffff168173ffffffffffffffffffffffffffffffffffffffff16036111365760006040517f1e4fbdf700000000000000000000000000000000000000000000000000000000815260040161112d91906117a9565b60405180910390fd5b61113f816113e8565b50565b6000600260008373ffffffffffffffffffffffffffffffffffffffff1673ffffffffffffffffffffffffffffffffffffffff168152602001908152602001600020549050919050565b60008273ffffffffffffffffffffffffffffffffffffffff16636352211e836040518263ffffffff1660e01b81526004016111c6919061177f565b602060405180830381865afa92505050801561120057506040513d601f19601f820116820180604052508101906111fd9190611b54565b60015b61120d5760009050611242565b600073ffffffffffffffffffffffffffffffffffffffff168173ffffffffffffffffffffffffffffffffffffffff1614159150505b92915050565b600260015403611284576040517f3ee5aeb500000000000000000000000000000000000000000000000000000000815260040160405180910390fd5b6002600181905550565b804710156112d55747816040517fcf4791810000000000000000000000000000000000000000000000000000000081526004016112cc929190611c57565b60405180910390fd5b6000808373ffffffffffffffffffffffffffffffffffffffff16836040516112fc90611cb1565b60006040518083038185875af1925050503d8060008114611339576040519150601f19603f3d011682016040523d82523d6000602084013e61133e565b606091505b5091509150816113525761135181611506565b5b50505050565b60018081905550565b61136961154b565b73ffffffffffffffffffffffffffffffffffffffff166113876106c4565b73ffffffffffffffffffffffffffffffffffffffff16146113e6576113aa61154b565b6040517f118cdaa70000000000000000000000000000000000000000000000000000000081526004016113dd91906117a9565b60405180910390fd5b565b60008060009054906101000a900473ffffffffffffffffffffffffffffffffffffffff169050816000806101000a81548173ffffffffffffffffffffffffffffffffffffffff021916908373ffffffffffffffffffffffffffffffffffffffff1602179055508173ffffffffffffffffffffffffffffffffffffffff168173ffffffffffffffffffffffffffffffffffffffff167f8be0079c531659141344cd1fd0a4f28419497f9722a3daafe3b4186f6b6457e060405160405180910390a35050565b80600260008473ffffffffffffffffffffffffffffffffffffffff1673ffffffffffffffffffffffffffffffffffffffff16815260200190815260200160002060008282546114fb9190611b0b565b925050819055505050565b6000815111156115195780518082602001fd5b6040517fd6bda27500000000000000000000000000000000000000000000000000000000815260040160405180910390fd5b600033905090565b6000604051905090565b600080fd5b600080fd5b600073ffffffffffffffffffffffffffffffffffffffff82169050919050565b600061159282611567565b9050919050565b6115a281611587565b81146115ad57600080fd5b50565b6000813590506115bf81611599565b92915050565b600080604083850312156115dc576115db61155d565b5b60006115ea858286016115b0565b92505060206115fb858286016115b0565b9150509250929050565b600081519050919050565b600082825260208201905092915050565b6000819050602082019050919050565b6000819050919050565b61164481611631565b82525050565b6000611656838361163b565b60208301905092915050565b6000602082019050919050565b600061167a82611605565b6116848185611610565b935061168f83611621565b8060005b838110156116c05781516116a7888261164a565b97506116b283611662565b925050600181019050611693565b5085935050505092915050565b600060408201905081810360008301526116e7818561166f565b905081810360208301526116fb818461166f565b90509392505050565b61170d81611631565b811461171857600080fd5b50565b60008135905061172a81611704565b92915050565b600080604083850312156117475761174661155d565b5b6000611755858286016115b0565b92505060206117668582860161171b565b9150509250929050565b61177981611631565b82525050565b60006020820190506117946000830184611770565b92915050565b6117a381611587565b82525050565b60006020820190506117be600083018461179a565b92915050565b6000602082840312156117da576117d961155d565b5b60006117e8848285016115b0565b91505092915050565b6000806000806080858703121561180b5761180a61155d565b5b6000611819878288016115b0565b945050602061182a8782880161171b565b935050604061183b8782880161171b565b925050606061184c8782880161171b565b91505092959194509250565b600080fd5b6000601f19601f8301169050919050565b7f4e487b7100000000000000000000000000000000000000000000000000000000600052604160045260246000fd5b6118a68261185d565b810181811067ffffffffffffffff821117156118c5576118c461186e565b5b80604052505050565b60006118d8611553565b90506118e4828261189d565b919050565b600067ffffffffffffffff8211156119045761190361186e565b5b602082029050602081019050919050565b600080fd5b60008151905061192981611704565b92915050565b600061194261193d846118e9565b6118ce565b9050808382526020820190506020840283018581111561196557611964611915565b5b835b8181101561198e578061197a888261191a565b845260208401935050602081019050611967565b5050509392505050565b600082601f8301126119ad576119ac611858565b5b81516119bd84826020860161192f565b91505092915050565b6000602082840312156119dc576119db61155d565b5b600082015167ffffffffffffffff8111156119fa576119f9611562565b5b611a0684828501611998565b91505092915050565b7f4e487b7100000000000000000000000000000000000000000000000000000000600052603260045260246000fd5b6000604082019050611a53600083018561179a565b611a606020830184611770565b9392505050565b600060208284031215611a7d57611a7c61155d565b5b6000611a8b8482850161191a565b91505092915050565b7f4e487b7100000000000000000000000000000000000000000000000000000000600052601160045260246000fd5b6000611ace82611631565b91507fffffffffffffffffffffffffffffffffffffffffffffffffffffffffffffffff8203611b0057611aff611a94565b5b600182019050919050565b6000611b1682611631565b9150611b2183611631565b9250828201905080821115611b3957611b38611a94565b5b92915050565b600081519050611b4e81611599565b92915050565b600060208284031215611b6a57611b6961155d565b5b6000611b7884828501611b3f565b91505092915050565b6000611b8c82611631565b9150611b9783611631565b9250828202611ba581611631565b91508282048414831517611bbc57611bbb611a94565b5b5092915050565b7f4e487b7100000000000000000000000000000000000000000000000000000000600052601260045260246000fd5b6000611bfd82611631565b9150611c0883611631565b925082611c1857611c17611bc3565b5b828204905092915050565b6000611c2e82611631565b9150611c3983611631565b9250828203905081811115611c5157611c50611a94565b5b92915050565b6000604082019050611c6c6000830185611770565b611c796020830184611770565b9392505050565b600081905092915050565b50565b6000611c9b600083611c80565b9150611ca682611c8b565b600082019050919050565b6000611cbc82611c8e565b915081905091905056fea2646970667358221220323f9be111295468eb315b45975c7f575a3022cb64f223e9e3fb02425ccff40d64736f6c634300081c0033",
  "linkReferences": {},
  "deployedLinkReferences": {}
}